:020000040000FA
:04000000F3EF14F016
:10080000003738392F3435362A3132332D0D303D0B
:100810002B002020202020202020202020202020ED
:1008200020202020202000636F6E7472617365F1B8
:100830006120696E76616C69646100636F6E7472C9
:10084000617365F16120636F727265637461005456
:10085000656D70657261747572613A00486F72619E
:100860003A25783A005445434C41444F00256425CD
:10087000634300257820000060EC13F00001CB6F8B
:10088000010E926E8096809A808879EF07F0CB51A6
:10089000D8B44DEF04F04FEF04F09AEF07F0D00E0C
:1008A000766FFF0E776FCB51786F796B7651782723
:1008B0007751792379510AE10A0E785DD8A063EF68
:1008C00004F066EF04F0010E67EF04F0000EA66F6F
:1008D000A76BA651A711D8B470EF04F072EF04F023
:1008E0009AEF07F0CBC0ECF0010ECA6F010E046E58
:1008F000020E32EC14F0120E056E080E066EBBEC02
:1009000013F0080E046E020E32EC14F02A0EC1EC45
:1009100016F0050E0001776F0F0E766FF10EE82EC0
:10092000FED7762FFCD7772FFAD79AEF07F0CB5167
:10093000D8B49DEF04F09FEF04F09AEF07F0D00ECB
:10094000766FFF0E776FCB51786F796B7651782782
:100950007751792379510AE10A0E785DD8A0B3EF77
:1009600004F0B6EF04F0010EB7EF04F0000EA86F2C
:10097000A96BA851A911D8B4C0EF04F0C2EF04F0DC
:100980009AEF07F0CBC0EDF0020ECA6F090E046EAD
:10099000020E32EC14F02A0EC1EC16F089EF04F0CE
:1009A000CB51D8B4D6EF04F0D8EF04F09AEF07F0AB
:1009B000D00E766FFF0E776FCB51786F796B7651D3
:1009C00078277751792379510AE10A0E785DD8A00A
:1009D000ECEF04F0EFEF04F0010EF0EF04F0000E86
:1009E000AA6FAB6BAA51AB11D8B4F9EF04F0FBEFCF
:1009F00004F09AEF07F0CBC0EEF0030ECA6F0A0EB8
:100A0000046E020E32EC14F02A0EC1EC16F089EFDF
:100A100004F0CB51D8B40FEF05F011EF05F09AEFC9
:100A200007F0D00E766FFF0E776FCB51786F796B32
:100A3000765178277751792379510AE10A0E785D4A
:100A4000D8A025EF05F028EF05F0010E29EF05F0FD
:100A5000000EAC6FAD6BAC51AD11D8B432EF05F0F8
:100A600034EF05F09AEF07F0CBC0EFF0040ECA6F39
:100A70000B0E046E020E32EC14F02A0EC1EC16F0CE
:100A800089EF04F0CB51D8B448EF05F04AEF05F0F8
:100A90006FEF05F03D0ECB19D8B451EF05F053EFD1
:100AA00005F06FEF05F0000ECA6F080E046E020E1F
:100AB00032EC14F0200E056E080E066EBBEC13F03F
:100AC000070E0001776F170E766F6A0EE82EFED7BD
:100AD000762FFCD7772FFAD700F09AEF07F0CB519B
:100AE000D8B475EF05F077EF05F09AEF07F03D0EFB
:100AF000CB19D8A47EEF05F080EF05F09AEF07F050
:100B0000000EB76F000EB66FEC0EB625D96E000E54
:100B1000B721DA6EF00EB625E16E000EB721E26E57
:100B2000DE50E618D8A497EF05F099EF05F09BEF9B
:100B300005F0C24BC32BB64BB72BB7BFA9EF05F0DF
:100B4000B75109E1040EB65DD8A0A9EF05F0ABEFEF
:100B500005F084EF05F0040EC219C311D8A4B3EF59
:100B600005F0B5EF05F05DEF07F0010E046E020E23
:100B700032EC14F03B0E056E080E066EBBEC13F063
:100B8000070E0001776F170E766F6A0EE82EFED7FC
:100B9000762FFCD7772FFAD700F08198819A819C25
:100BA000819E0F0EC16EA2EC17F0010E926E030E25
:100BB000046E010E32EC14F04F0E056E080E066E38
:100BC000BBEC13F06EEC17F01A0E0001766FF80E06
:100BD000E82EFED7762FFCD700F0000E70EC15F053
:100BE0008FEC17F00B0E0001776F260E766F5D0EFF
:100BF000E82EFED7762FFCD7772FFAD700D0840EB9
:100C00000001666F000E676F730E686F080E696FE4
:100C1000C8C06AF0C9C06BF01EEC15F08E0E000162
:100C2000666F000E676F610E686F080E696FC6C051
:100C30006AF0C7C06BF01EEC15F0980E0001666FED
:100C4000000E676F5C0E686F080E696FC4C06AF0B3
:100C5000C5C06BF01EEC15F0030E046E020E32ECF4
:100C600014F0980E056E000E066EBBEC13F00B0E22
:100C7000046E020E32EC14F08E0E056E000E066E3F
:100C8000BBEC13F00E0E046E020E32EC14F0840E68
:100C9000056E000E066EBBEC13F0808A8098949C63
:100CA000AC9CAC8AAC98AC94B896AB8E0C0EAF6E84
:100CB00050EF07F00A0E186ED70E196EA30E1A6EBB
:100CC0003C0E1B6E000EB5EC15F001C006F002C024
:100CD00007F0000E07BEFF0E086E096E010E12EC43
:100CE0000EF006C014F007C015F008C016F009C0D9
:100CF00017F09BEC07F014C0A2F015C0A3F016C0CB
:100D0000A4F017C0A5F0A2C014F0A3C015F0A4C0B1
:100D100016F0A5C017F0000E186E000E196EC80E62
:100D20001A6E420E1B6E9BEC07F014C0AEF015C09D
:100D3000AFF016C0B0F017C0B1F07A0E0001666FC8
:100D4000000E676F6D0E686F080E696FAEC001F020
:100D5000AFC002F0B0C003F0B1C004F027EC11F056
:100D600001C06AF002C06BF01EEC15F00F0E046EAD
:100D7000010E32EC14F07A0E056E000E066EBBEC1E
:100D800013F0000E016E000E026EF00E036E410EA7
:100D9000046EAEC005F0AFC006F0B0C007F0B1C041
:100DA00008F0AAEC11F0D8B0D8EF06F0DAEF06F0B0
:100DB00026EF07F00001C5BFE7EF06F0C55109E1D6
:100DC000060EC45DD8A0E7EF06F0E9EF06F0FAEFF3
:100DD00006F0C5BFF7EF06F0C55107E1130EC45D7D
:100DE000D8B0F5EF06F0F7EF06F0FAEF06F08094D2
:100DF000FBEF06F08084000EB36F000EB26FB3BF3E
:100E00000BEF07F0B35109E1120EB25DD8A00BEF62
:100E100007F00DEF07F00FEF07F023EF07F0ACA29C
:100E200014EF07F016EF07F00FEF07F0150E0001B3
:100E3000B225D96E010EB321DA6EDF50AD6EB24B22
:100E4000B32BFFEF06F0808650EF07F0000E000195
:100E5000B56F000EB46FB5BF37EF07F0B55109E1BC
:100E6000150EB45DD8A037EF07F039EF07F03BEF70
:100E700007F04FEF07F0ACA240EF07F042EF07F0AA
:100E80003BEF07F0000E0001B425D96E010EB5212D
:100E9000DA6EDF50AD6EB44BB52B2BEF07F08096BA
:100EA000040E0001C219C311D8B459EF07F05BEF6B
:100EB00007F05AEF06F09AEF07F0000EF06FEC0E15
:100EC000086E000E096EECEC0EF008C0F4F009C0DC
:100ED000F5F0000E0001CA6F010E046E020E32EC36
:100EE00014F0270E056E080E066EBBEC13F060EFD3
:100EF00005F0CA51766F776B7751000AD8B483EF4B
:100F000007F09AEF07F07651000AD8B447EF04F0E3
:100F1000010AD8B497EF04F0030AD8B4D0EF04F074
:100F2000010AD8B409EF05F0070AD8B442EF05F07A
:100F30009AEF07F012001750800B206E17501724FD
:100F4000266E16AEA6EF07F0A8EF07F0A9EF07F0A0
:100F500026802650D8B4AFEF07F0B1EF07F0C4EF0A
:100F600007F02628D8A4B7EF07F0B9EF07F0C1EFD4
:100F700007F0000E146E000E156E000E166E000EB9
:100F8000176E168ECCEF07F0000E146E000E156E65
:100F9000000E166E000E176E1B50800B201A1B5091
:100FA0001B24256E1AAED7EF07F0D9EF07F0DAEF62
:100FB00007F025802550D8B4E0EF07F0E2EF07F006
:100FC000F5EF07F02528D8A4E8EF07F0EAEF07F0DF
:100FD000F2EF07F0000E186E000E196E000E1A6E7A
:100FE000000E1B6E1A8EFDEF07F0000E186E000E3D
:100FF000196E000E1A6E000E1B6E2550D8B403EF4A
:1010000008F005EF08F00DEF08F02650D8A40BEF1C
:1010100008F00DEF08F017EF08F0000E146E000E48
:10102000156E000E166E000E176EAFEF09F01A5017
:101030001402F3CF2BF0F4CF2CF02B50216E226A48
:10104000236A246A2C50276E286A296A2A6A195052
:101050001502F3CF2BF0F4CF2CF02B502126000EED
:101060002222232224222C502726000E2822292245
:101070002A2218501602F3CF2BF0F4CF2CF02B506D
:101080002126000E2222232224222C502726000E65
:10109000282229222A2223C024F022C023F021C0A2
:1010A00022F0216A18501502F3CF2BF0F4CF2CF068
:1010B0002B5021262C502222000E2322000E242207
:1010C00019501402F3CF2BF0F4CF2CF02B50212623
:1010D0002C502222000E2322000E242223C024F0B2
:1010E00022C023F021C022F0216A18501402F3CF4D
:1010F0002BF0F4CF2CF02B5021262C502222000E66
:101100002322000E24221A501502F3CF2BF0F4CF25
:101110002CF02B5027262C502822000E2922000EBE
:101120002A2219501602F3CF2BF0F4CF2CF02B50BB
:1011300027262C502822000E2922000E2A221A507F
:101140001602F3CF2BF0F4CF2CF02B501C6E2C504A
:101150001D6E1E6A1F6A1EC01FF01DC01EF01CC03F
:101160001DF01C6A1C5027261D5028221E502922C3
:101170001F502A2221C01CF022C01DF023C01EF0E7
:1011800024C01FF0190ECAEF08F0D8901F321E328B
:101190001D321C32E82EC5EF08F01C5027261D50CA
:1011A00028221E5029221F502A2223C024F022C0A8
:1011B00023F021C022F0216A255026C01CF01D6AB0
:1011C0001C26000E1D22820E1C242B6EFF0E1D20DD
:1011D0002C6E00EF09F0D8902736283629362A36AB
:1011E00024AEF5EF08F0F7EF08F0F8EF08F02780ED
:1011F000D89021362236233624362B06D8A02C064A
:1012000029AE05EF09F007EF09F0EBEF08F0000E4B
:10121000256E24AE0EEF09F010EF09F034EF09F05F
:10122000FF0E21141C6EFF0E22141D6EFF0E2314E0
:101230001E6E7F0E24141F6E1C501D101E101F10DA
:10124000D8B425EF09F027EF09F02BEF09F0010ED4
:10125000256E34EF09F027A030EF09F032EF09F0E6
:1012600034EF09F027EF09F02550D8B43AEF09F030
:101270003CEF09F060EF09F0010E2726000E28224E
:1012800029222A222AA047EF09F049EF09F060EF4E
:1012900009F027C01CF028C01DF029C01EF02AC08C
:1012A0001FF01F341F321E321D321C321CC027F0AB
:1012B0001DC028F01EC029F01FC02AF02B4A2C2A7E
:1012C0002CBE6BEF09F02C5008E12B28D8A06BEF57
:1012D00009F06DEF09F077EF09F0000E276E000EB0
:1012E000286E800E296E7F0E2A6EA5EF09F02CBEA7
:1012F00084EF09F02C5006E12B04D8B082EF09F0FE
:1013000084EF09F090EF09F0000E276E000E286EB2
:10131000000E296E000E2A6E000E206EA5EF09F059
:101320002BC026F0FF0E2716FF0E28167F0E29165B
:10133000000E2A1626A09FEF09F0A1EF09F0A2EFF8
:1013400009F0298ED89026302A6E20502A1227C004
:1013500014F028C015F029C016F02AC017F01200AA
:1013600045C0D9FF46C0DAFFDECFF6FFDDCFF7FF7D
:101370000800F550250AD8A4C0EF09F0C2EF09F023
:1013800019EF0BF045C0D9FF46C0DAFFDE2A000E88
:10139000DD22000E0001BD6F000EBC6FBCC0C0F0AE
:1013A000BDC0C1F0BE69BF6945C0D9FF46C0DAFF04
:1013B000DECFF6FFDDCFF7FF0800F550630AD8A4B3
:1013C000E4EF09F0E6EF09F00DEF0AF045C0D9FFB0
:1013D00046C0DAFFDE2A000EDD2247C0D9FF48C032
:1013E000DAFFDFCF49F0020EDE26DFCF4AF0000E33
:1013F000DD2249C0D9FF4AC0DAFFDF505D6E43C02D
:101400000AF044C00BF05DC00CF02CEC12F00AC0E6
:1014100043F00BC044F034EF0BF045C0D9FF46C099
:10142000DAFFDECFF6FFDDCFF7FF0800F550640AE4
:10143000D8B41DEF0AF01FEF0AF031EF0AF045C0F3
:10144000D9FF46C0DAFFDECFF6FFDDCFF7FF080099
:10145000F550690AD8A42FEF0AF031EF0AF071EFC6
:101460000AF045C0D9FF46C0DAFFDE2A000EDD22B1
:1014700047C0D9FF48C0DAFFDFCF49F0020EDE26B1
:10148000DFCF4AF0000EDD2249C0D9FF4AC0DAFFA3
:10149000DECF4DF0DDCF4EF0000E4EBEFF0E4F6E94
:1014A000506E516E526E536E546E43C01CF044C069
:1014B0001DF04DC01EF04EC01FF04FC020F050C0B8
:1014C00021F051C022F052C023F053C024F054C088
:1014D00025F035EC0BF01CC043F01DC044F034EF98
:1014E0000BF045C0D9FF46C0DAFFDECFF6FFDDCFF7
:1014F000F7FF0800F550780AD8B481EF0AF083EFBF
:101500000AF095EF0AF045C0D9FF46C0DAFFDECFFA
:10151000F6FFDDCFF7FF0800F550580AD8A493EF87
:101520000AF095EF0AF0E3EF0AF045C0D9FF46C094
:10153000DAFFDECFF6FFDDCFF7FF0800F5CF5DF075
:1015400045C0D9FF46C0DAFFDE2A000EDD2247C0C3
:10155000D9FF48C0DAFFDFCF49F0020EDE26DFCF29
:101560004AF0000EDD2249C0D9FF4AC0DAFFDECFC3
:101570004BF0DDCF4CF04BC055F04CC056F0576AE5
:10158000586A596A5A6A5B6A5C6A43C01CF044C074
:101590001DF055C01EF056C01FF057C020F058C0B7
:1015A00021F059C022F05AC023F05BC024F05CC087
:1015B00025F05DC026F0A6EC0CF01CC043F01DC069
:1015C00044F034EF0BF045C0D9FF46C0DAFFDECF60
:1015D000F6FFDDCFF7FF0800F550250AD8A4F3EF9A
:1015E0000AF0F5EF0AF00CEF0BF045C0D9FF46C04A
:1015F000DAFFDE2A000EDD22000E026E250E016EDD
:1016000043C003F044C004F098EC12F0000E446EA6
:10161000010E436E34EF0BF045C0D9FF46C0DAFF30
:10162000DE2A000EDD22000E446E000E436E34EF03
:101630000BF045C0D9FF46C0DAFFDECFF6FFDDCFA5
:10164000F7FF0800F550016E026A43C003F044C082
:1016500004F098EC12F045C0D9FF46C0DAFFDE2A4C
:10166000000EDD2206EF0BF012001EC036F01FC088
:1016700037F020C038F021C039F022C03AF023C042
:101680003BF024C03CF025C03DF03DBE4AEF0BF0DE
:101690004DEF0BF0010E4EEF0BF0000E346E356A7D
:1016A00034503510D8B457EF0BF059EF0BF069EF09
:1016B0000BF03D1E3C1E3B1E3A1E391E381E371EC7
:1016C000366C000E3722382239223A223B223C2245
:1016D0003D220001BFBF6FEF0BF071EF0BF072EF17
:1016E0000BF0C093BFBF7FEF0BF0BF5106E1BE050B
:1016F000D8B07DEF0BF07FEF0BF085EF0BF0000E15
:10170000316E010E306E89EF0BF0BEC030F0BFC0FD
:1017100031F0BCC032F0BDC033F034503510D8A425
:1017200094EF0BF096EF0BF09DEF0BF0C0A59BEF45
:101730000BF09DEF0BF0A0EF0BF03206D8A03306B4
:10174000000E3F6E1F0E3E6E000EEB6F24EF0CF08E
:101750003E06D8A03F06CC0E3E24D96E000E3F2098
:10176000DA6E36C001F037C002F038C003F039C07D
:1017700004F03AC005F03BC006F03CC007F03DC0A5
:1017800008F00A0E096E000E0A6E000E0B6E000EB7
:101790000C6E000E0D6E000E0E6E000E0F6E000E23
:1017A000106E75EC10F001C026F002C027F003C0E7
:1017B00028F004C029F005C02AF006C02BF007C0AD
:1017C0002CF008C02DF026C013F028C014F0D7EC80
:1017D00015F01350300FDF6E3006D8A031063206F8
:1017E000D8A0330636C001F037C002F038C003F08D
:1017F00039C004F03AC005F03BC006F03CC007F029
:101800003DC008F00A0E096E000E0A6E000E0B6E47
:10181000000E0C6E000E0D6E000E0E6E000E0F6EA2
:10182000000E106EB1EC0FF001C036F002C037F0C0
:1018300003C038F004C039F005C03AF006C03BF0F0
:1018400007C03CF008C03DF03FBE2FEF0CF03F500A
:1018500008E13E04D8A02FEF0CF031EF0CF062EF5E
:101860000CF036503710381039103A103B103C103D
:101870003D10D8A43EEF0CF040EF0CF0A8EF0BF0B9
:1018800031BE4DEF0CF0315006E13004D8B04BEFD3
:101890000CF04DEF0CF0A8EF0BF033BE58EF0CF04E
:1018A000335008E13204D8A058EF0CF05AEF0CF096
:1018B00062EF0CF00001C0B360EF0CF062EF0CF0CF
:1018C000A8EF0BF034503510D8A469EF0CF06BEF93
:1018D0000CF073EF0CF00001C0A571EF0CF073EF8A
:1018E0000CF091EF0CF03E06D8A03F0634503510B6
:1018F000D8A47DEF0CF07FEF0CF085EF0CF0000E1C
:101900002F6E2B0E2E6E89EF0CF0000E2F6E2D0E0B
:101910002E6ECC0E3E24D96E000E3F20DA6E2EC005
:10192000DFFF1CC011F01DC012F0CC0E3E24136E60
:10193000000E3F20146E32C015F033C016F0FDECDF
:1019400012F011C01CF012C01DF012000001BFBF48
:10195000ACEF0CF0AEEF0CF0AFEF0CF0C093BFBFEC
:10196000BCEF0CF0BF5106E1BE05D8B0BAEF0CF0E9
:10197000BCEF0CF0C2EF0CF0000E346E010E336EB3
:10198000C6EF0CF0BEC033F0BFC034F0BCC035F0C1
:10199000BDC036F0C0A9CFEF0CF0D1EF0CF0D5EF01
:1019A0000CF0FE0E3526FF0E36221EC037F01FC08B
:1019B00038F020C039F021C03AF022C03BF023C0FB
:1019C0003CF024C03DF025C03EF0000E406E1F0EDE
:1019D0003F6E000EEB6FA0EF0DF03F06D8A0400663
:1019E0000F0E3714416E426A42BE00EF0DF04250B6
:1019F00009E10A0E415CD8A000EF0DF002EF0DF0F6
:101A00000AEF0DF0570E4124416E000E4220426E47
:101A100010EF0DF0300E4124416E000E4220426E58
:101A2000BF0E276EFF0E286E2650296E2A6A275099
:101A3000292628502A222A500AE11A0E295CD8A009
:101A400024EF0DF027EF0DF0010E28EF0DF0000E42
:101A50002F6E306A2F503010D8B431EF0DF033EFC5
:101A60000DF063EF0DF09F0E276EFF0E286E200E17
:101A70004110296E000E42102A6E27502926285048
:101A80002A222A500AE11A0E295CD8A04AEF0DF04A
:101A90004DEF0DF0010E4EEF0DF0000E316E326A7B
:101AA00031503210D8B457EF0DF059EF0DF063EF0D
:101AB0000DF041C007F042C008F096EC14F007C0EA
:101AC00041F008C042F0CC0E3F24D96E000E4020F9
:101AD000DA6E41C0DFFF3306D8A034063506D8A041
:101AE000360637C027F038C028F039C029F03AC090
:101AF0002AF03BC02BF03CC02CF03DC02DF03EC086
:101B00002EF0050E8DEF0DF0D8902E322D322C32A6
:101B10002B322A32293228322732E82E84EF0DF078
:101B200027C037F028C038F029C039F02AC03AF071
:101B30002BC03BF02CC03CF02DC03DF02EC03EF041
:101B400040BEACEF0DF0405009E1020E3F5CD8A062
:101B5000ACEF0DF0AEEF0DF0DFEF0DF037503810B9
:101B600039103A103B103C103D103E10D8A4BBEF8A
:101B70000DF0BDEF0DF0EDEF0CF034BECAEF0DF03F
:101B8000345006E13304D8B0C8EF0DF0CAEF0DF0C1
:101B9000EDEF0CF036BED5EF0DF0365008E1350410
:101BA000D8A0D5EF0DF0D7EF0DF0DFEF0DF000016D
:101BB000C0B3DDEF0DF0DFEF0DF0EDEF0CF0000145
:101BC000C0A9E5EF0DF0E7EF0DF0FDEF0DF03F06DA
:101BD000D8A04006CC0E3F24D96E000E4020DA6E0D
:101BE00026C0DFFF3F06D8A04006CC0E3F24D96EAA
:101BF000000E4020DA6E300EDF6E1CC011F01DC0EA
:101C000012F0CC0E3F24136E000E4020146E35C02F
:101C100015F036C016F0FDEC12F011C01CF012C029
:101C20001DF012000E6E0E50D8B419EF0EF01BEF1F
:101C30000EF03DEF0EF009BE22EF0EF020EF0EF099
:101C40003DEF0EF006C00AF007C00BF008C00CF024
:101C500009C00DF00A1E0B1E0C1E0D1E0A2A000ED6
:101C60000B220C220D220AC010F00BC011F00CC088
:101C700012F00DC013F045EF0EF006C010F007C0D3
:101C800011F008C012F009C013F006500710081038
:101C90000910D8A44EEF0EF050EF0EF05AEF0EF0F0
:101CA000000E066E000E076E000E086E000E096E26
:101CB000EBEF0EF0960E0F6E64EF0EF00F2AD89039
:101CC0001332123211321032000E10140A6E000E4E
:101CD00011140B6E000E12140C6EFE0E13140D6E0A
:101CE0000A500B100C100D10D8A479EF0EF07BEFFA
:101CF0000EF05EEF0EF089EF0EF00F2A010E1026A7
:101D0000000E112212221322D890133212321132F5
:101D10001032000E10140A6E000E11140B6E000E1D
:101D200012140C6EFF0E13140D6E0A500B100C10D3
:101D30000D10D8A49EEF0EF0A0EF0EF07DEF0EF088
:101D4000A8EF0EF00F06D890103611361236133663
:101D500012BEADEF0EF0AFEF0EF0B7EF0EF0020EC9
:101D60000F60B5EF0EF0B7EF0EF0A2EF0EF00FB070
:101D7000BCEF0EF0BEEF0EF0BFEF0EF0129ED8904B
:101D80000F320FC00AF00B6A0C6A0D6A0AC00DF020
:101D90000C6A0B6A0A6A0A5010120B5011120C508E
:101DA00012120D5013120E50D8B4D9EF0EF0DBEF13
:101DB0000EF0E3EF0EF009BEE2EF0EF0E0EF0EF0F2
:101DC000E3EF0EF0138E10C006F011C007F012C042
:101DD00008F013C009F01200000E166E000E156E0A
:101DE000000E0F6E000E0E6EF8EF0EF0084A092A74
:101DF000010E146E08C0D9FF09C0DAFF200EDE18EC
:101E0000D8B405EF0FF007EF0FF023EF0FF0F70E48
:101E10000A6EFF0E0B6E08C0D9FF09C0DAFFDF5053
:101E20000C6E0D6A0A500C260B500D220D5009E164
:101E3000050E0C5CD8A01FEF0FF021EF0FF023EF81
:101E40000FF0000E146E14C010F0116A1050111033
:101E5000D8A42DEF0FF02FEF0FF0F6EF0EF039EFC3
:101E60000FF0000E0F6E010E0E6E084A092A6EEF7B
:101E70000FF008C0D9FF09C0DAFFDF500A6E0B6A05
:101E80000B50000AD8B447EF0FF06EEF0FF00A5076
:101E90002B0AD8B435EF0FF0060AD8B431EF0FF0A3
:101EA0006EEF0FF015C001F016C002F0000E046EC8
:101EB0000A0E036E3AEC17F008C0D9FF09C0DAFF2A
:101EC000DF500A6E0A50015E000E025A300E0124E5
:101ED000156E000E0220166E35EF0FF0D00E0A6E52
:101EE000FF0E0B6E08C0D9FF09C0DAFFDF500C6E81
:101EF0000D6A0A500C260B500D220D500AE10A0EF5
:101F00000C5CD8A086EF0FF089EF0FF0010E8AEF7E
:101F10000FF0000E126E136A12501310D8A493EF34
:101F20000FF095EF0FF052EF0FF00E500F10D8A4F6
:101F30009CEF0FF09EEF0FF0ACEF0FF015C00AF022
:101F400016C00BF00A1E0B1E0A4A0B2A0AC008F024
:101F50000BC009F0B0EF0FF015C008F016C009F083
:101F60001200000E126E10BEBAEF0FF0B8EF0FF0B5
:101F7000CCEF0FF0101E0F1E0E1E0D1E0C1E0B1EA2
:101F80000A1E096C000E0A220B220C220D220E22C0
:101F90000F221022010E126E08BED3EF0FF0D1EF08
:101FA0000FF0E5EF0FF0081E071E061E051E041EAB
:101FB000031E021E016C000E0222032204220522CF
:101FC000062207220822010E121A20EE13F0070E35
:101FD000DE6AE806FDE209500A100B100C100D1025
:101FE0000E100F101010D8B4F8EF0FF0FAEF0FF03A
:101FF0004CEF10F0010E116E08EF10F0D89009367A
:102000000A360B360C360D360E360F361036112AC0
:1020100010AE0DEF10F00FEF10F0FEEF0FF0D890B4
:1020200013361436153616361736183619361A364C
:102030000950015C0A5002580B5003580C500458C8
:102040000D5005580E5006580F500758105008589C
:10205000D8A02DEF10F02FEF10F040EF10F0095046
:10206000015E0A50025A0B50035A0C50045A0D508C
:10207000055A0E50065A0F50075A1050085A13802E
:10208000D89010320F320E320D320C320B320A322F
:102090000932112E0FEF10F01250D8B452EF10F099
:1020A00054EF10F064EF10F01A1E191E181E171EC0
:1020B000161E151E141E136C000E14221522162255
:1020C0001722182219221A2213C001F014C002F09C
:1020D00015C003F016C004F017C005F018C006F0D4
:1020E00019C007F01AC008F01200000E126E08BEE8
:1020F0007EEF10F07CEF10F090EF10F0081E071E3E
:10210000061E051E041E031E021E016C000E022286
:10211000032204220522062207220822010E126E43
:1021200010BE97EF10F095EF10F0A7EF10F0101E13
:102130000F1E0E1E0D1E0C1E0B1E0A1E096C000E1D
:102140000A220B220C220D220E220F2210220950ED
:102150000A100B100C100D100E100F101010D8B428
:10216000B4EF10F0B6EF10F0FEEF10F0010E116EAC
:10217000C4EF10F0D89009360A360B360C360D36FF
:102180000E360F361036112A10AEC9EF10F0CBEF15
:1021900010F0BAEF10F00950015C0A5002580B50D1
:1021A00003580C5004580D5005580E5006580F5047
:1021B000075810500858D8A0E0EF10F0E2EF10F0E8
:1021C000F2EF10F00950015E0A50025A0B50035A08
:1021D0000C50045A0D50055A0E50065A0F50075A0B
:1021E0001050085AD89010320F320E320D320C3285
:1021F0000B320A320932112ECBEF10F01250D8B444
:1022000004EF11F006EF11F016EF11F0081E071E93
:10221000061E051E041E031E021E016C000E022275
:1022200003220422052206220722082201C001F00F
:1022300002C002F003C003F004C004F005C005F0C2
:1022400006C006F007C007F008C008F0120003340B
:1022500004340A6E0A50D8A430EF11F032EF11F0B6
:102260003CEF11F0000E016E000E026E000E036EC8
:10227000000E046EA9EF11F001C005F002C006F0D7
:1022800003C007F004C008F0200E4CEF11F0D89006
:102290000832073206320532E82E47EF11F00550BA
:1022A000096E038EFF0E0116FF0E0216FF0E0316B7
:1022B000000E0416960E0A5E0ABE63EF11F061EF7F
:1022C00011F079EF11F00A50800A970FD8B06BEF38
:1022D00011F06DEF11F06FEF11F032EF11F0D890B7
:1022E00004320332023201320A3E6FEF11F091EFF5
:1022F00011F01F0E0A647FEF11F081EF11F089EFEA
:1023000011F032EF11F0D890013602360336043660
:102310000A060A50D8A48FEF11F091EF11F083EF65
:1023200011F00950D8B497EF11F099EF11F0A1EF27
:1023300011F0041E031E021E016C000E0222032275
:10234000042201C001F002C002F003C003F004C087
:1023500004F01200000E0114096E000E02140A6E41
:10236000800E03140B6E7F0E04140C6E09500A10BD
:102370000B100C10D8A4BFEF11F0C1EF11F0C9EF92
:1023800011F0000E016E000E026E000E036E000EC4
:10239000046E000E0514096E000E06140A6E800EFF
:1023A00007140B6E7F0E08140C6E09500A100B10E8
:1023B0000C10D8A4DEEF11F0E0EF11F0E8EF11F00F
:1023C000000E056E000E066E000E076E000E086E03
:1023D00004AEEDEF11F0EFEF11F0F8EF11F0016C3A
:1023E000021ED8B0022A031ED8B0032A800E04565B
:1023F00008AEFDEF11F0FFEF11F008EF12F0056CE1
:10240000061ED8B0062A071ED8B0072A800E085626
:10241000000E011A000E021A000E031A800E041A92
:10242000000E051A000E061A000E071A800E081A72
:102430000550015C065002580750035808500458D4
:10244000D8B025EF12F027EF12F02AEF12F0D89053
:102450002BEF12F0D88012000001BC51BD11D8A49E
:1024600034EF12F036EF12F03CEF12F0BCC010F077
:10247000BDC011F042EF12F0FF0EBC25106EFF0E32
:10248000BD21116EC0A147EF12F049EF12F052EFDB
:1024900012F00CC001F0026A0AC003F00BC004F095
:1024A00098EC12F011BE57EF12F059EF12F05BEFFB
:1024B00012F05FEF12F0000E116E000E106E000EA3
:1024C0000F6E000E0E6E71EF12F0000E026E200EF7
:1024D000016E0AC003F00BC004F098EC12F00E4A33
:1024E0000F2A10500E5C0F50800A0D6E1150800A9A
:1024F0000D58D8A07EEF12F080EF12F065EF12F0C9
:102500000001C0B186EF12F088EF12F091EF12F0E7
:102510000CC001F0026A0AC003F00BC004F098EC92
:1025200012F0010E0E240A6E000E0F200B6E120028
:1025300003500410D8B49FEF12F0A1EF12F0AAEFED
:1025400012F003500410D8A4A8EF12F0AAEF12F072
:10255000AFEF12F00150B0EC17F0FCEF12F020EEEC
:1025600004F00350D9260450DA22DE50DE10D8B42D
:10257000BCEF12F0BEEF12F0D9EF12F020EE04F033
:102580000350D9260450DA2210EE02F00350E1265F
:102590000450E222DE50E65CE650800A096EDE500E
:1025A000800A0958D8B0D7EF12F0D9EF12F0FCEF3B
:1025B00012F020EE02F00350D9260450DA22DECFCA
:1025C00005F0DDCF06F003C0D9FF04C0DAFFDECF8F
:1025D00007F0DDCF08F005500724D96E065008201B
:1025E000DA6E01C0DFFF20EE02F00350D92604505E
:1025F000DA22DE2A000EDD2212000001C0A103EF64
:1026000013F005EF13F00FEF13F013C00AF014C02E
:102610000BF011C00CF012C00DF093EC15F016BECB
:1026200014EF13F016EF13F01CEF13F015C01AF0AF
:1026300016C01BF020EF13F0000E1B6E000E1A6E7A
:10264000000E196E000E186E32EF13F0000E026EBF
:10265000200E016E11C003F012C004F098EC12F0CD
:10266000184A192A1A50185C1950800A176E1B5004
:10267000800A1758D8A03FEF13F041EF13F026EF70
:1026800013F00001C0B147EF13F049EF13F053EF1F
:1026900013F013C00AF014C00BF011C00CF012C0FC
:1026A0000DF093EC15F013C001F014C002F0DDEC56
:1026B00016F01A500124116E1B500220126E1200E7
:1026C000010EF66E080EF76E20EE01F0100E0900F6
:1026D000F5CFDEFFE806FBE2000E136E000E126E71
:1026E000000E156E010E146E1438F00B8C6E83A064
:1026F0007CEF13F07EEF13F080EF13F0B1EF13F0E7
:10270000124A132A83A287EF13F089EF13F08BEF9D
:1027100013F0B1EF13F0124A132A83A492EF13F0CF
:1027200094EF13F096EF13F0B1EF13F0124A132A5F
:1027300083A69DEF13F09FEF13F0A1EF13F0B1EF1D
:1027400013F0124A132AD89014361536155009E1A1
:10275000100E145CD8A0AFEF13F0B1EF13F074EFCC
:1027600013F0000E836E010E1224D96E000E13209A
:10277000DA6EDF501200000E0A6E000E096EDBEFFB
:1027800013F009500524076E0A500620086E07C092
:10279000F6FF08C0F7FFF86A070EF76403D00800D9
:1027A000F55005D0F6CFE1FFF7CFE2FFE750C1ECDF
:1027B00016F0094A0A2A09500524076E0A50062015
:1027C000086E07C0F6FF08C0F7FFF86A070EF76447
:1027D00003D00800F55005D0F6CFE1FFF7CFE2FFB8
:1027E000E7500009D8A4F7EF13F0F9EF13F0C1EFA9
:1027F00013F01200000EC5EC14F0340E046EF20E4D
:10280000E82EFED7042EFCD7030E5EEC17F00D0E5B
:10281000046EFC0EE82EFED7042EFCD7030E5EECF1
:1028200017F01D0E046E910EE82EFED7042EFCD775
:1028300000F0030E5EEC17F0020E5EEC17F0020ED5
:102840005EEC17F0080E5EEC17F0000E5EEC17F071
:102850000C0E5EEC17F0000E5EEC17F0060E5EEC50
:1028600017F01200056E0504D8A439EF14F03BEF01
:1028700014F04CEF14F004507F0F086E08380F0B63
:10288000066E08500F0B076E06505EEC17F00750EF
:102890005EEC17F064EF14F0020E0518D8A453EFA5
:1028A00014F055EF14F064EF14F00450BF0F086EED
:1028B00008380F0B066E08500F0B076E06505EECC3
:1028C00017F007505EEC17F0120062C05EF063C0B4
:1028D0005FF0000E0001BB6F000EBA6F83EF14F0C3
:1028E00060C043F061C044F05E0E456E000E466E5F
:1028F00064C047F065C048F0B0EC09F043500001F7
:10290000BA274450BB235EC0F6FF5FC0F7FF080044
:10291000F5500009D8A48FEF14F091EF14F070EF88
:1029200014F0BAC060F0BBC061F012009F0E096ED7
:10293000FF0E0A6E07C00BF008C00CF009500B2602
:102940000A500C220C500AE11A0E0B5CD8A0ABEF17
:1029500014F0AEEF14F0010EAFEF14F0000E0D6E98
:102960000E6A0D500E10D8B4B8EF14F0BAEF14F090
:10297000C0EF14F05F0E0714076E086AC4EF14F07E
:1029800007C007F008C008F01200016E01A0CBEFED
:1029900014F0CDEF14F0D0EF14F08188D1EF14F0E3
:1029A000819801A2D6EF14F0D8EF14F0DBEF14F009
:1029B000818ADCEF14F0819A01A4E1EF14F0E3EFD7
:1029C00014F0E6EF14F0818CE7EF14F0819C01A67F
:1029D000ECEF14F0EEEF14F0F1EF14F0818EF2EF63
:1029E00014F0819E12004C0EF66E2E0EF76E000E45
:1029F000F86E01EE00F010EE27F00900F5CFEEFFC3
:102A0000E550E150FAE1520EF66E2F0EF76E000E11
:102A1000F86E00EEF0F010EE07F00900F5CFEEFFD3
:102A2000E550E150FAE100EEBAF0360EEE6AE80643
:102A3000FDE1000EF86E0001F7EF15F06A0E0001DF
:102A40006E6F000E6F6F66C070F067C071F0000EA1
:102A5000736F000E726F000E756F000E746F700E44
:102A6000606F000E616F68C062F069C063F06E0E47
:102A7000646F000E656F65EC14F0000172516625FD
:102A8000D96E73516721DA6E000EDF6E1200010EEF
:102A9000076E200E01180210D8B451EF15F053EF55
:102AA00015F06CEF15F0F70E036EFF0E046E01C00B
:102AB00005F002C006F00350052604500622065019
:102AC00009E1050E055CD8A068EF15F06AEF15F076
:102AD0006CEF15F0000E076E07C001F0026A1200DD
:102AE000046ED00EF8EC16F004504DEC17F0D10E39
:102AF0000FEC17F0000E34EC16F0036E03500001DB
:102B0000C86FC96B000E34EC16F0036E0350000161
:102B1000C66FC76B010E34EC16F0036E0350000154
:102B2000C46FC56B1200000E106E000E0F6EA4EF86
:102B300015F00EC001F0026A0CC003F00DC004F0E5
:102B400098EC12F00F4A102A0F500A24D96E105038
:102B50000B20DA6EDF500E6E0E50D8A4B2EF15F0D7
:102B6000B4EF15F099EF15F01200056E0C0EC16E62
:102B7000BEEF15F0020EC26ECFEF15F00550036EDA
:102B8000046A0450000AD8B4C8EF15F0CFEF15F06E
:102B90000350000AD8B4BAEF15F0CFEF15F0290EA4
:102BA000C06EC280C282C4CF01F0026A120014BE9D
:102BB000E4EF15F0145006E11304D8B0E2EF15F07D
:102BC000E4EF15F0F2EF15F013C015F014C016F095
:102BD000151E161E154A162A15C013F016C014F03D
:102BE000F6EF15F013C013F014C014F01200000E2D
:102BF000936E0F0EC16EADEC17F0FAEC13F0A2EC71
:102C000017F0060E046E010E32EC14F0650E056E20
:102C1000080E066EBBEC13F0F4C0B8F0F5C0B9F0C6
:102C200051EC16F00CEF16F000EF00F09F0E036E63
:102C3000FF0E046E200E0110056E000E0210066ECF
:102C4000035005260450062206500AE11A0E055CC0
:102C5000D8A02DEF16F030EF16F0010E31EF16F080
:102C6000000E016E026A1200016EC586C7A03BEF1E
:102C700016F03DEF16F036EF16F0C9CF02F0015016
:102C8000D8A445EF16F047EF16F04BEF16F085ECA1
:102C900017F04DEF16F07BEC17F099EC17F002509F
:102CA00012005EEF16F0C80E00D000D0E82EFCD760
:102CB0003CEC04F00001B807D8A0B9070001B9BF87
:102CC0006CEF16F0B95106E1B805D8B06AEF16F00E
:102CD0006CEF16F053EF16F012009F0E036EFF0E0E
:102CE000046E01C005F002C006F003500526045032
:102CF000062206500AE11A0E055CD8A082EF16F0F3
:102D000085EF16F0010E86EF16F0000E016E026AD6
:102D10001200BF0E036EFF0E046E01C005F002C06C
:102D200006F0035005260450062206500AE11A0E4A
:102D3000055CD8A09EEF16F0A1EF16F0010EA2EFF1
:102D400016F0000E016E026A1200D00E036EFF0E26
:102D5000046E01C005F002C006F0035005260450C1
:102D6000062206500AE10A0E055CD8A0BAEF16F05A
:102D7000BDEF16F0010EBEEF16F0000E016E026AF6
:102D80001200046E04500F0B026E0450F00B036E21
:102D9000818403380F0BC5EC14F081861A0EE82EDF
:102DA000FED700D081960250C5EC14F081861A0E31
:102DB000E82EFED700D08196120001C003F002C0B9
:102DC00004F0E5EF16F0014A022A01C0D9FF02C063
:102DD000DAFFDF50D8A4EFEF16F0F1EF16F0E3EFD3
:102DE00016F00350015C016E04500258026E12008E
:102DF000026EC580C5B0FFEF16F001EF17F0FAEFD5
:102E000016F09E96C7B607EF17F009EF17F00BEF15
:102E100017F00EEF17F002504DEC17F01200026E93
:102E2000C582C5B216EF17F018EF17F011EF17F0C3
:102E30009E96C7B61EEF17F020EF17F022EF17F09F
:102E400025EF17F002504DEC17F0120074656D700D
:102E50006572617475726120726567756C61720D5F
:102E60000074656D706572617475726120616C7457
:032E7000610D00F1
:102E740001500302F3CF05F0F4CF06F00150040231
:102E8400F350062602500302F350062605C001F053
:102E940006C002F01200016E01C0C9FF99EC17F0E0
:102EA400C5AC57EF17F059EF17F05CEF17F0010EB0
:102EB4005DEF17F0020E1200036E81940350C5EC0F
:102EC40014F081860B0E026E620EE82EFED7022EDF
:102ED400FCD700D08196120093809382500EC76E67
:102EE400280EC66E000EC56E130EC86E9D869E9685
:102EF4001200C58AC588C5B882EF17F084EF17F0B1
:102F04007DEF17F01200C59AC588C5B88CEF17F08D
:102F14008EEF17F087EF17F01200C584C5B495EF54
:102F240017F097EF17F090EF17F0C75012009EA616
:102F34009EEF17F0A0EF17F099EF17F09E9612008E
:102F4400000E5EEC17F0010E5EEC17F0120032304A
:052F5400323064004E64
:082F5A000F0E956E120012002B
:020000040020DA
:08000000FFFFFFFFFFFFFFFF00
:020000040030CA
:0E00000000051F1FFF8385FF0FC00FE00F409C
:00000001FF
