:020000040000FA
:04000000C8EF20F035
:10080000003738392F3435362A3132332D0D303D0B
:100810002B002020202020202020202020202020ED
:1008200020202020202000636F6E7472617365F1B8
:100830006120696E76616C69646100636F6E7472C9
:10084000617365F16120636F727265637461005456
:10085000656D70657261747572613A00486F72619E
:100860003A25783A005445434C41444F00252E32F6
:100870006600494E46004E414E00696E66006E614C
:100880006E00257820006C660000000E00017B6F72
:10089000000E7A6F3BC08CF03CC08DF03DC08EF0F6
:1008A0003EC08FF08FBF59EF04F057EF04F06FEFA9
:1008B00004F0000E7B6F010E7A6F8CC001F08DC0CA
:1008C00002F08EC003F08FC004F084EC22F001C06F
:1008D0008CF002C08DF003C08EF004C08FF0000ECB
:1008E0000001936F000E926F0AC17EF00BC17FF082
:1008F0007A517B11D8A47FEF04F081EF04F088EFE8
:1009000004F0FCA586EF04F088EF04F0A2EF04F0F9
:100910007A517B11D8A48FEF04F091EF04F097EF98
:1009200004F0000E616F2B0E606F9BEF04F0000E61
:10093000616F2D0E606F60C014F1924B932B7E0798
:10094000D8A07F078CC001F08DC002F08EC003F0EC
:100950008FC004F016EC1CF001040210D8A4B3EF11
:1009600004F0B5EF04F00CEF05F0BF0E406EFF0E83
:10097000416E3F50426E436A4050422641504322EE
:1009800043500AE11A0E425CD8A0C9EF04F0CCEF44
:1009900004F0010ECDEF04F0000E0001626F636BF6
:1009A00062516311D8B4D7EF04F0D9EF04F0E7EF48
:1009B00004F0140E9225016E010E9321026E720E48
:1009C000036E080E046E6CEC20F0F3EF04F0140ECE
:1009D0009225016E010E9321026E7A0E036E080EAF
:1009E000046E6CEC20F00001FD0E7E27FF0E7F23CD
:1009F00039C011F03AC012F0140E136E010E146ECD
:100A00007EC015F07FC016F065EC1DF011C039F006
:100A100012C03AF070EF0AF08CC001F08DC002F005
:100A20008EC003F08FC004F016EC1CF001500210D1
:100A3000D8A41DEF05F01FEF05F05FEF05F0BF0E26
:100A4000406EFF0E416E3F50426E436A4050422658
:100A50004150432243500AE11A0E425CD8A033EFC2
:100A600005F036EF05F0010E37EF05F0000E00013E
:100A7000646F656B64516511D8B441EF05F043EFC5
:100A800005F051EF05F0140E9225016E010E932131
:100A9000026E760E036E080E046E6CEC20F0F3EF1F
:100AA00004F0140E9225016E010E9321026E7E0E4B
:100AB000036E080E046E6CEC20F0F3EF04F0000EF1
:100AC0000001946F000E956F800E966F3F0E976F2A
:100AD000000E916F000E906F8CC001F08DC002F07F
:100AE0008EC003F08FC004F0000E056E000E066E7F
:100AF000000E076E000E086EDDEC1EF0D8B083EF1E
:100B000005F085EF05F008EF06F0A4EF05F094C0BE
:100B100014F095C015F096C016F097C017F0000EAF
:100B2000186E000E196E200E1A6E410E1B6EE3EC4D
:100B300012F014C094F015C095F016C096F017C0CE
:100B400097F00001904B912B8CC02DF08DC02EF0B2
:100B50008EC02FF08FC030F0000E186E000E196E90
:100B6000200E1A6E410E1B6E94C014F095C015F045
:100B700096C016F097C017F0E3EC12F014C031F0F5
:100B800015C032F016C033F017C034F094EC1BF0EF
:100B9000D8B0CDEF05F0CFEF05F087EF05F0EFEF20
:100BA00005F094C001F095C002F096C003F097C024
:100BB00004F0000E056E000E066E200E076E410E4C
:100BC000086EF8EC14F001C094F002C095F003C078
:100BD00096F004C097F000019007D8A091078CC050
:100BE0002DF08DC02EF08EC02FF08FC030F094C04D
:100BF00031F095C032F096C033F097C034F094ECE9
:100C00001BF0D8A006EF06F008EF06F0D1EF05F0D4
:100C10003FC007F0086A0DEC20F007500001816F1B
:100C200081C080F0670E8119D8A419EF06F01BEF80
:100C300006F041EF06F0FA51FB11D8A422EF06F0BE
:100C400024EF06F028EF06F0000EFB6F010EFA6F9E
:100C5000FBBF35EF06F0FB5106E1FA05D8B033EFE4
:100C600006F035EF06F03BEF06F0000E7D6F060E46
:100C70007C6F4AEF06F0FAC07CF0FBC07DF04AEFD3
:100C800006F0FBBF46EF06F048EF06F035EF06F042
:100C90003BEF06F0670E8119D8A451EF06F053EF31
:100CA00006F082EF06F091AF61EF06F0FC0E905D6A
:100CB000FF0E9159D8A05FEF06F061EF06F080EFCC
:100CC00006F0FF0E406EFF0E416E7CC042F07DC00C
:100CD00043F040504226415043229051425C4350E1
:100CE000800A446E9151800A4458D8A07AEF06F0E9
:100CF0007CEF06F080EF06F0660E806F82EF06F064
:100D0000650E806F7CC072F07DC073F0670E811934
:100D1000D8A48DEF06F08FEF06F09FEF06F0660E79
:100D20008019D8A496EF06F098EF06F0A1EF06F030
:100D300091BF9FEF06F09DEF06F0A1EF06F0724B1A
:100D4000732B660E8019D8A4A8EF06F0AAEF06F060
:100D5000CAEF06F091BFB1EF06F0AFEF06F0BDEFBE
:100D600006F0000E946F000E956F800E966F3F0E8A
:100D7000976F000E916F000E906F670E8119D8B4B7
:100D8000C4EF06F0C6EF06F0CAEF06F090517227E6
:100D900091517323000E8B6F000E8A6F8CC082F00E
:100DA0008DC083F08EC084F08FC085F094C074F045
:100DB00095C075F096C076F097C077F05BEF07F0BE
:100DC00082C001F083C002F084C003F085C004F04B
:100DD00094C005F095C006F096C007F097C008F0E3
:100DE000F8EC14F001C01AF002C01BF003C01CF0B4
:100DF00004C01DF032EC18F01AC086F01BC087F05A
:100E00001CC088F01DC089F086C001F087C002F0C8
:100E100088C003F089C004F011EC1BF001C078F029
:100E200002C079F082C02DF083C02EF084C02FF074
:100E300085C030F094C018F095C019F096C01AF033
:100E400097C01BF086C014F087C015F088C016F05C
:100E500089C017F0E3EC12F014C031F015C032F085
:100E600016C033F017C034F06EEC21F02DC082F0C4
:100E70002EC083F02FC084F030C085F094C001F004
:100E800095C002F096C003F097C004F0000E056E06
:100E9000000E066E200E076E410E086EF8EC14F080
:100EA00001C094F002C095F003C096F004C097F022
:100EB00000018A4B8B2B72518A5D8B51800A406EE8
:100EC0007351800A4058D8A068EF07F06AEF07F026
:100ED000E0EF06F094C014F095C015F096C016F03F
:100EE00097C017F0000E186E000E196EA00E1A6E45
:100EF000400E1B6EE3EC12F014C086F015C087F0B4
:100F000016C088F017C089F082C02DF083C02EF083
:100F100084C02FF085C030F086C031F087C032F039
:100F200088C033F089C034F094EC1BF0D8B09BEF4C
:100F300007F09DEF07F0A8EF07F0000E0001866FA5
:100F4000000E876F000E886F000E896FD1EF07F0DB
:100F500082C001F083C002F084C003F085C004F0B9
:100F600086C005F087C006F088C007F089C008F089
:100F7000DDEC1EF0D8A0BFEF07F0C1EF07F0D1EF16
:100F800007F0000178B1C7EF07F0C9EF07F0D1EF24
:100F900007F0000E866F000E876F000E886F000E40
:100FA000896F8CC001F08DC002F08EC003F08FC03D
:100FB00004F086C005F087C006F088C007F089C03D
:100FC00008F083EC10F001C082F002C083F003C08F
:100FD00084F004C085F082C02DF083C02EF084C060
:100FE0002FF085C030F0000E186E000E196E200E26
:100FF0001A6E410E1B6E74C014F075C015F076C0E9
:1010000016F077C017F0E3EC12F014C031F015C001
:1010100032F016C033F017C034F094EC1BF0D8A0B7
:1010200014EF08F016EF08F03FEF08F00001904BC6
:10103000912B74C014F075C015F076C016F077C00F
:1010400017F0000E186E000E196E200E1A6E410E6B
:101050001B6EE3EC12F014C074F015C075F016C0EE
:1010600076F017C077F0660E00018019D8A43BEF28
:1010700008F03DEF08F03FEF08F0724B732B74C09F
:1010800094F075C095F076C096F077C097F0650E35
:1010900000018019D8B44FEF08F051EF08F057EF76
:1010A00008F090C070F091C071F05BEF08F0000E96
:1010B000716F000E706F000E6F6F000E6E6F000E7E
:1010C0006D6F000E6C6F000E8B6F000E8A6F56EF07
:1010D00009F082C001F083C002F084C003F085C033
:1010E00004F094C005F095C006F096C007F097C0D4
:1010F00008F0F8EC14F001C01AF002C01BF003C0B5
:101100001CF004C01DF032EC18F01AC086F01BC0B1
:1011100087F01CC088F01DC089F086C001F087C030
:1011200002F088C003F089C004F011EC1BF001C08C
:1011300078F002C079F00001FCB9A1EF08F0A3EF4C
:1011400008F0C0EF08F078517911D8A4AAEF08F0A0
:10115000ACEF08F0C0EF08F0670E8119D8A4B3EF28
:1011600008F0B5EF08F0C0EF08F071BFBCEF08F071
:10117000BAEF08F0C0EF08F06C4B6D2B0AEF09F0E6
:101180006E516F11D8A4C7EF08F0C9EF08F0F3EF64
:1011900008F071BFD0EF08F0CEEF08F0F3EF08F0E1
:1011A000140E9225D96E010E9321DA6E2E0EDF6E8B
:1011B000924B932B7E07D8A07F07000E6F6F010E16
:1011C0006E6FF3EF08F0140E9225D96E010E932185
:1011D000DA6E300EDF6E924B932B7E07D8A07F071E
:1011E0006C07D8A06D076C516D11D8A4FAEF08F008
:1011F000FCEF08F0E3EF08F0140E9225D96E010E13
:101200009321DA6E7851300FDF6E924B932B7E076D
:10121000D8A07F0782C02DF083C02EF084C02FF0AD
:1012200085C030F094C018F095C019F096C01AF03F
:1012300097C01BF086C014F087C015F088C016F068
:1012400089C017F0E3EC12F014C031F015C032F091
:1012500016C033F017C034F06EEC21F02DC082F0D0
:101260002EC083F02FC084F030C085F094C001F010
:1012700095C002F096C003F097C004F0000E056E12
:10128000000E066E200E076E410E086EF8EC14F08C
:1012900001C094F002C095F003C096F004C097F02E
:1012A00000017007D8A071078A4B8B2B72518A5DA1
:1012B0008B51800A406E7351800A4058D8B063EF5A
:1012C00009F065EF09F073EF09F093BF71EF09F0D2
:1012D000935109E14B0E925DD8A071EF09F073EFC5
:1012E00009F069EF08F06E516F11D8A47AEF09F098
:1012F0007CEF09F08DEF09F0FCA981EF09F083EF95
:1013000009F08DEF09F0140E9225D96E010E93218C
:10131000DA6E2E0EDF6E924B932B140E9225D96E41
:10132000010E9321DA6E000EDF6E650E8019D8A4CF
:101330009CEF09F09EEF09F0F8EF04F0000E8B6FC0
:101340004F0E8A6F140E8A25D96E010E8B21DA6E2C
:10135000000EDF6E000E7B6F000E7A6F91BFB5EF4F
:1013600009F0B3EF09F0BDEF09F0000E7B6F010E3D
:101370007A6F906D911FD8B0912B000E7D6F020E89
:101380007C6FEEEF09F08A07D8A08B07140E8A2530
:10139000D96E010E8B21DA6E90C001F091C002F07F
:1013A000000E046E0A0E036E85EC1EF00150300F25
:1013B000DF6E90C001F091C002F0000E046E0A0EC4
:1013C000036EC8EC1DF001C090F002C091F0000166
:1013D0007C07D8A07D077E07D8A07F079051911188
:1013E000D8A4F5EF09F0F7EF09F0C3EF09F07DBFDE
:1013F00004EF0AF07D5106E17C05D8B002EF0AF057
:1014000004EF0AF0C3EF09F08A07D8A08B077A51DE
:101410007B11D8A40EEF0AF010EF0AF016EF0AF0D5
:10142000000E676F2B0E666F1AEF0AF0000E676FE3
:101430002D0E666F140E8A25D96E010E8B21DA6E81
:1014400066C0DFFF7E07D8A07F078A07D8A08B077A
:10145000BF0E406EFF0E416E3F50426E436A4050D9
:1014600042264150432243500AE11A0E425CD8A062
:101470003CEF0AF03FEF0AF0010E40EF0AF0000ED9
:101480006A6F6B6B6A516B11D8A449EF0AF04BEF8E
:101490000AF051EF0AF0000E696F650E686F55EFA4
:1014A0000AF0000E696F450E686F140E8A25D96E1A
:1014B000010E8B21DA6E68C0DFFF7E07D8A07F07A0
:1014C000140E9225016E010E9321026E140E8A25D0
:1014D000036E010E8B21046E6CEC20F0F8EF04F02B
:1014E00012002AEC1EF00001FF6F010E926E809632
:1014F000809A8088B8EF0DF0FF51D8B482EF0AF0DF
:1015000084EF0AF0D9EF0DF0D00EB66FFF0EB76F73
:10151000FF51B86FB96BB651B827B751B923B9515C
:101520000AE10A0EB85DD8A098EF0AF09BEF0AF026
:10153000010E9CEF0AF0000EE66FE76BE651E71133
:10154000D8B4A5EF0AF0A7EF0AF0D9EF0DF0FFC06D
:1015500064F1010EFE6F010E046E020EA9EC1FF085
:10156000120E056E080E066E32EC1FF0080E046EA9
:10157000020EA9EC1FF02A0EBCEC22F0050E0001B1
:10158000B76F0F0EB66FF10EE82EFED7B62FFCD751
:10159000B72FFAD7D9EF0DF0FF51D8B4D2EF0AF038
:1015A000D4EF0AF0D9EF0DF0D00EB66FFF0EB76F83
:1015B000FF51B86FB96BB651B827B751B923B951BC
:1015C0000AE10A0EB85DD8A0E8EF0AF0EBEF0AF0E6
:1015D000010EECEF0AF0000EE86FE96BE851E9113B
:1015E000D8B4F5EF0AF0F7EF0AF0D9EF0DF0FFC02D
:1015F00065F1020EFE6F090E046E020EA9EC1FF0DB
:101600002A0EBCEC22F0BEEF0AF0FF51D8B40BEF6B
:101610000BF00DEF0BF0D9EF0DF0D00EB66FFF0E03
:10162000B76FFF51B86FB96BB651B827B751B9232F
:10163000B9510AE10A0EB85DD8A021EF0BF024EFF2
:101640000BF0010E25EF0BF0000EEA6FEB6BEA5189
:10165000EB11D8B42EEF0BF030EF0BF0D9EF0DF00B
:10166000FFC066F1030EFE6F0A0E046E020EA9ECB7
:101670001FF02A0EBCEC22F0BEEF0AF0FF51D8B4E6
:1016800044EF0BF046EF0BF0D9EF0DF0D00EB66F34
:10169000FF0EB76FFF51B86FB96BB651B827B7518E
:1016A000B923B9510AE10A0EB85DD8A05AEF0BF080
:1016B0005DEF0BF0010E5EEF0BF0000EEC6FED6BCB
:1016C000EC51ED11D8B467EF0BF069EF0BF0D9EFE7
:1016D0000DF0FFC067F1040EFE6F0B0E046E020EDC
:1016E000A9EC1FF02A0EBCEC22F0BEEF0AF0FF516D
:1016F000D8B47DEF0BF07FEF0BF0A4EF0BF03D0EB5
:10170000FF19D8B486EF0BF088EF0BF0A4EF0BF0C5
:10171000000EFE6F080E046E020EA9EC1FF0200EE4
:10172000056E080E066E32EC1FF0070E0001B76F53
:10173000170EB66F6A0EE82EFED7B62FFCD7B72F5E
:10174000FAD700F0D9EF0DF0FF51D8B4AAEF0BF0A3
:10175000ACEF0BF0D9EF0DF03D0EFF19D8A4B3EFAD
:101760000BF0B5EF0BF0D9EF0DF0000EF76F000E98
:10177000F66F640EF625D96E010EF721DA6E8F0E24
:10178000F625E16E010EF721E26EDE50E618D8A4D0
:10179000CCEF0BF0CEEF0BF0D1EF0BF001010C4BC7
:1017A0000D2B0001F64BF72BF7BFE0EF0BF0F751D5
:1017B00009E1040EF65DD8A0E0EF0BF0E2EF0BF0CC
:1017C000B9EF0BF0040E01010C190D11D8A4EBEFC9
:1017D0000BF0EDEF0BF09CEF0DF0010E046E020E1E
:1017E000A9EC1FF03B0E056E080E066E32EC1FF0E2
:1017F000070E0001B76F170EB66F6A0EE82EFED700
:10180000B62FFCD7B72FFAD700F08198819A819C28
:10181000819E0F0EC16EA0EC23F0010E926E000EA1
:10182000946E030E046E010EA9EC1FF04F0E056EB0
:10183000080E066E32EC1FF06CEC23F01A0E00015D
:10184000B66FF80EE82EFED7B62FFCD700F0000ECC
:1018500091EC21F08DEC23F00B0E0001B76F260EFA
:10186000B66F5D0EE82EFED7B62FFCD7B72FFAD78E
:1018700000D0C40E576E000E586E820E596E080EC0
:101880005A6E12C15BF013C15CF0F3EC20F0CE0E87
:10189000576E000E586E610E596E080E5A6E10C1CA
:1018A0005BF011C15CF0F3EC20F0D80E576E000E27
:1018B000586E5C0E596E080E5A6E0EC15BF00FC169
:1018C0005CF0F3EC20F0030E046E020EA9EC1FF0A6
:1018D000D80E056E000E066E32EC1FF00B0E046E75
:1018E000020EA9EC1FF0CE0E056E000E066E32EC55
:1018F0001FF00E0E046E020EA9EC1FF0C40E056E52
:10190000000E066E32EC1FF0808A8098949CAC9C8E
:10191000AC8AAC98AC94B896AB8E0C0EAF6E8FEFD1
:101920000DF00A0E186ED70E196EA30E1A6E3C0E2D
:101930001B6E000E45EC21F001C006F002C007F05E
:10194000000E07BEFF0E086E096E010E37EC1AF08E
:1019500006C014F007C015F008C016F009C017F053
:10196000E3EC12F014C0E2F015C0E3F016C0E4F0AE
:1019700017C0E5F0E2C014F0E3C015F0E4C016F0C3
:10198000E5C017F0000E186E000E196EC80E1A6E24
:10199000420E1B6EE3EC12F014C0EEF015C0EFF037
:1019A00016C0F0F017C0F1F0BA0E576E000E586E68
:1019B0006D0E596E080E5A6EEEC05BF0EFC05CF013
:1019C000F0C05DF0F1C05EF0F3EC20F00F0E046E9D
:1019D000010EA9EC1FF0BA0E056E000E066E32EC79
:1019E0001FF0000E2D6E000E2E6EF00E2F6E410EAB
:1019F000306EEEC031F0EFC032F0F0C033F0F1C025
:101A000034F094EC1BF0D8B008EF0DF00AEF0DF0B5
:101A100057EF0DF001010FBF17EF0DF00F5109E166
:101A2000070E0E5DD8A017EF0DF019EF0DF02AEF9D
:101A30000DF00FBF27EF0DF00F5107E1180E0E5DEF
:101A4000D8B025EF0DF027EF0DF02AEF0DF08290C2
:101A50002BEF0DF08280000E0001F36F000EF26F8D
:101A6000F3BF3CEF0DF0F35109E1120EF25DD8A087
:101A70003CEF0DF03EEF0DF040EF0DF054EF0DF0A8
:101A8000ACA245EF0DF047EF0DF040EF0DF07D0EED
:101A90000001F225D96E010EF321DA6EDF50AD6E32
:101AA000F24BF32B30EF0DF0808682EF0DF0000E3D
:101AB0000001F56F000EF46FF5BF68EF0DF0F55102
:101AC00009E1150EF45DD8A068EF0DF06AEF0DF096
:101AD0006CEF0DF080EF0DF0ACA271EF0DF073EF35
:101AE0000DF06CEF0DF0680E0001F425D96E010EBB
:101AF000F521DA6EDF50AD6EF44BF52B5CEF0DF097
:101B0000809682900B0E0001B76F260EB66F5D0EA9
:101B1000E82EFED7B62FFCD7B72FFAD700D0040E89
:101B200001010C190D11D8B498EF0DF09AEF0DF0DA
:101B300091EF0CF0D9EF0DF0000E686F640E086E97
:101B4000010E096E3BEC19F008C093F109C094F145
:101B5000000E0001FE6F010E046E020EA9EC1FF0D4
:101B6000270E056E080E066E32EC1FF095EF0BF097
:101B7000FE51B66FB76BB751000AD8B4C2EF0DF083
:101B8000D9EF0DF0B651000AD8B47CEF0AF0010A83
:101B9000D8B4CCEF0AF0030AD8B405EF0BF0010A71
:101BA000D8B43EEF0BF0070AD8B477EF0BF0D9EFBB
:101BB0000DF0120047C0D9FF48C0DAFFDECFF6FFB4
:101BC000DDCFF7FF0800F550250AD8A4EAEF0DF0A5
:101BD000ECEF0DF067EF10F047C0D9FF48C0DAFF17
:101BE000DE2A000EDD22000E01010B6F000E0A6FCF
:101BF0000AC1FCF00BC1FDF00001FA69FB6947C0A6
:101C0000D9FF48C0DAFFDECFF6FFDDCFF7FF0800CF
:101C1000F5502E0AD8A40FEF0EF011EF0EF08FEF53
:101C20000EF0000EFB6F000EFA6F47C0D9FF48C0E0
:101C3000DAFFDE2A000EDD2247C0D9FF48C0DAFFF6
:101C4000DECFF6FFDDCFF7FF0800F5502A0AD8A453
:101C50002CEF0EF02EEF0EF04BEF0EF047C0D9FF39
:101C600048C0DAFFDE2A000EDD2249C0D9FF4AC093
:101C7000DAFFDFCF4BF0020EDE26DFCF4CF0000E96
:101C8000DD224BC0D9FF4CC0DAFFDECFFAF0DDCF4A
:101C9000FBF08FEF0EF047C0D9FF48C0DAFFDECF70
:101CA00008F0DDCF09F03BEC19F008C0FAF009C0EC
:101CB000FBF062EF0EF047C0D9FF48C0DAFFDE2A22
:101CC000000EDD22D00E4B6EFF0E4C6E47C0D9FFCA
:101CD00048C0DAFFDECFF6FFDDCFF7FF0800F55092
:101CE0004D6E4E6A4B504D264C504E224E500AE1DE
:101CF0000A0E4D5CD8A07FEF0EF082EF0EF0010EC1
:101D000083EF0EF0000E0001A06FA16BA051A11196
:101D1000D8A48DEF0EF08FEF0EF05BEF0EF047C002
:101D2000D9FF48C0DAFFDECFF6FFDDCFF7FF0800AE
:101D3000F550076E086A0DEC20F007500001A86FFF
:101D4000A851D8B4A6EF0EF0A8EF0EF0E2EF0EF017
:101D500047C0D9FF48C0DAFFDECF4BF0DDCF4CF0F3
:101D6000010E4B26000E4C224BC0F6FF4CC0F7FF75
:101D70000800F550076E086A0DEC20F007500001CE
:101D8000A96FA951D8B4C7EF0EF0C9EF0EF0E2EF7A
:101D90000EF047C0D9FF48C0DAFFDECF4BF0DDCFF1
:101DA0004CF0020E4B26000E4C224BC0F6FF4CC0EE
:101DB000F7FF0800F550076E086A0DEC20F0075099
:101DC0000001AA6F660EA819D8A4E9EF0EF0EBEF98
:101DD0000EF02BEF0FF047C0D9FF48C0DAFFDECF7F
:101DE000F6FFDDCFF7FF0800F5CFABF047C0D9FF16
:101DF00048C0DAFFDE2A000EDD2249C0D9FF4AC002
:101E0000DAFFDFCF4BF0040EDE26DFCF4CF0000E02
:101E1000DD224BC0D9FF4CC0DAFFDECFA4F0DECF0D
:101E2000A5F0DECFA6F0DECFA7F045C039F046C062
:101E30003AF0A4C03BF0A5C03CF0A6C03DF0A7C05E
:101E40003EF0ABC03FF045EC04F039C045F03AC07D
:101E500046F082EF10F0A80E016E000E026E860EA4
:101E6000036E080E046E000E066E020E056E95ECF3
:101E70001CF001500210D8A440EF0FF042EF0FF019
:101E8000BEEF0FF047C0D9FF48C0DAFFDECF4BF0FE
:101E9000DDCF4CF0010E4B26000E4C224BC0F6FF5E
:101EA0004CC0F7FF0800F5CFABF0BF0E4B6EFF0E36
:101EB0004C6E47C0D9FF48C0DAFFDECFF6FFDDCF5A
:101EC000F7FF0800F5504D6E4E6A4B504D264C50B2
:101ED0004E224E500AE11A0E4D5CD8A072EF0FF060
:101EE00075EF0FF0010E76EF0FF0000E0001A26FFC
:101EF000A36BA251A311D8B480EF0FF082EF0FF0C3
:101F00009CEF0FF049C0D9FF4AC0DAFFDFCF4BF09A
:101F1000040EDE26DFCF4CF0000EDD224BC0D9FFD1
:101F20004CC0DAFFDECFA4F0DECFA5F0DECFA6F006
:101F3000DECFA7F0B4EF0FF049C0D9FF4AC0DAFFF7
:101F4000DFCF4BF0040EDE26DFCF4CF0000EDD229B
:101F50004BC0D9FF4CC0DAFFDECFA4F0DECFA5F036
:101F6000DECFA6F0DECFA7F0020E47C0D9FF48C0F3
:101F7000DAFFDE26000EDD2215EF0FF047C0D9FF95
:101F800048C0DAFFDECFF6FFDDCFF7FF0800F550DF
:101F9000780AD8B4CEEF0FF0D0EF0FF0E2EF0FF0E9
:101FA00047C0D9FF48C0DAFFDECFF6FFDDCFF7FF2D
:101FB0000800F550580AD8A4E0EF0FF0E2EF0FF058
:101FC00031EF10F047C0D9FF48C0DAFFDECFF6FF8F
:101FD000DDCFF7FF0800F5CFABF047C0D9FF48C011
:101FE000DAFFDE2A000EDD2249C0D9FF4AC0DAFF3F
:101FF000DFCF4BF0020EDE26DFCF4CF0000EDD22ED
:102000004BC0D9FF4CC0DAFFDECF4DF0DDCF4EF034
:102010004DC098F04EC099F000019A6B9B6B9C6B81
:102020009D6B9E6B9F6B45C01CF046C01DF098C019
:102030001EF099C01FF09AC020F09BC021F09CC0F8
:1020400022F09DC023F09EC024F09FC025F0ABC0BD
:1020500026F0C5EC16F01CC045F01DC046F082EF1E
:1020600010F047C0D9FF48C0DAFFDECFF6FFDDCF62
:10207000F7FF0800F550250AD8A441EF10F043EF10
:1020800010F05AEF10F047C0D9FF48C0DAFFDE2A3F
:10209000000EDD22000E026E250E016E45C003F01B
:1020A00046C004F000EC1DF0000E466E010E456EB9
:1020B00082EF10F047C0D9FF48C0DAFFDE2A000ED9
:1020C000DD22000E466E000E456E82EF10F047C016
:1020D000D9FF48C0DAFFDECFF6FFDDCFF7FF0800FB
:1020E000F550016E026A45C003F046C004F000ECF2
:1020F0001DF047C0D9FF48C0DAFFDE2A000EDD22FE
:1021000054EF10F012000450800B0D6E04500424A4
:102110000F6E03AE8EEF10F090EF10F091EF10F015
:102120000F800F50D8B497EF10F099EF10F0AEEF8A
:1021300010F00F28D8A49FEF10F0A1EF10F0A9EF36
:1021400010F0000E016E000E026E000E036E000E07
:10215000046E038E000E046EB6EF10F0000E016EDA
:10216000000E026E000E036E000E046E0850800B0F
:102170000E6E0D500E18D8B4C0EF10F0C2EF10F074
:10218000C3EF10F00D8C085008240E6E07AECBEF95
:1021900010F0CDEF10F0CEEF10F00E800E50D8B44E
:1021A000D4EF10F0D6EF10F0EBEF10F00E28D8A41B
:1021B000DCEF10F0DEEF10F0E6EF10F0000E056E31
:1021C000000E066E000E076E000E086E078E000EE3
:1021D000086EF3EF10F0000E056E000E066E000E96
:1021E000076E000E086E0F500E5CD8B0FAEF10F0BC
:1021F000FCEF10F023EF11F00DAC01EF11F003EF45
:1022000011F005EF11F0800E0D1A0FC010F00EC086
:102210000FF010C00EF001C010F005C001F010C0AA
:1022200005F002C010F006C002F010C006F003C0B6
:1022300010F007C003F010C007F004C010F008C091
:1022400004F010C008F0000E106E0F500EC009F020
:102250000A6A095E000E0A5A0ABE38EF11F00A50E7
:1022600009E11A0E095CD8A038EF11F03AEF11F02D
:1022700071EF11F00150021003100410D8A443EFC5
:1022800011F046EF11F0010E47EF11F0000E106E45
:10229000000E016E000E026E000E036E000E046E44
:1022A0000EC00FF07AEF11F010A059EF11F05BEFB4
:1022B00011F061EF11F0D89010300109106E63EF4A
:1022C00011F0D890103201A068EF11F06AEF11F010
:1022D0006BEF11F0108E04340432033202320132FB
:1022E0000F2A0E500F5CD8A078EF11F07AEF11F0A2
:1022F00054EF11F00DBC7FEF11F081EF11F0C1EF41
:1023000011F00F50D8A487EF11F089EF11F093EF7F
:1023100011F0000E016E000E026E000E036E000E34
:10232000046EE2EF12F0055001260650022207501B
:1023300003220850042204A0A0EF11F0A2EF11F034
:102340004EEF12F010A0A7EF11F0A9EF11F0AFEFD0
:1023500011F0D89010300109106EB1EF11F0D89043
:10236000103201A0B6EF11F0B8EF11F0B9EF11F093
:10237000108E043404320332023201320F2A4EEF3F
:1023800012F00550015C06500258075003580450E3
:10239000800A096E0850800A0958D8B0D2EF11F0AF
:1023A000D4EF11F0FFEF11F00150055C096E0250FF
:1023B00006580A6E035007580B6E045008580C6EEE
:1023C000FF0E0924016EFF0E0A20026EFF0E0B2085
:1023D000036EFF0E0C20046E800E0D1A106C105050
:1023E000D8A4F5EF11F0F7EF11F007EF12F0010E9E
:1023F0000126000E02220322042207EF12F00550EC
:10240000015E0650025A0750035A0850045A015000
:10241000021003100410D8A410EF12F012EF12F003
:1024200047EF12F01050D8A418EF12F01AEF12F084
:1024300047EF12F0000E016E000E026E000E036EEA
:10244000000E046EE2EF12F0D89001360236033629
:10245000043610AE2EEF12F030EF12F031EF12F022
:10246000018010A036EF12F038EF12F03CEF12F0BE
:10247000D88010363EEF12F0D89010360F50D8B4F6
:1024800044EF12F046EF12F047EF12F00F0603AEE2
:102490004CEF12F04EEF12F024EF12F0000E0E6E21
:1024A00010AE55EF12F057EF12F06FEF12F010C0B0
:1024B00009F07F0E0916D8B460EF12F062EF12F047
:1024C00066EF12F0010E0E6E6FEF12F001A06BEFCF
:1024D00012F06DEF12F06FEF12F062EF12F00E508B
:1024E000D8B475EF12F077EF12F0A2EF12F0010EF0
:1024F0000126000E02220322042204A082EF12F021
:1025000084EF12F0A2EF12F001C009F002C00AF04D
:1025100003C00BF004C00CF00C340C320B320A3246
:10252000093209C001F00AC002F00BC003F00CC070
:1025300004F00F28D8B49FEF12F0A1EF12F0A2EF31
:1025400012F00F2A0F28D8B4A8EF12F0AAEF12F059
:10255000B2EF12F00F50D8A4B0EF12F0B2EF12F0B9
:10256000C4EF12F0000E016E000E026E000E036E3C
:10257000000E046E0F50D8A4C0EF12F0C2EF12F09C
:10258000C4EF12F0000E0D6E0FA0C9EF12F0CBEFEA
:1025900012F0CEEF12F0038ECFEF12F0039ED89020
:1025A0000F30046E0DAED7EF12F0D9EF12F0DAEF64
:1025B00012F0048E01C001F002C002F003C003F06B
:1025C00004C004F012001750800B206E175017241F
:1025D000266E16AEEEEF12F0F0EF12F0F1EF12F001
:1025E00026802650D8B4F7EF12F0F9EF12F00CEF76
:1025F00013F02628D8A4FFEF12F001EF13F009EF33
:1026000013F0000E146E000E156E000E166E000E06
:10261000176E168E14EF13F0000E146E000E156E6A
:10262000000E166E000E176E1B50800B201A1B50EA
:102630001B24256E1AAE1FEF13F021EF13F022EFCB
:1026400013F025802550D8B428EF13F02AEF13F0AB
:102650003DEF13F02528D8A430EF13F032EF13F03C
:102660003AEF13F0000E186E000E196E000E1A6E7F
:10267000000E1B6E1A8E45EF13F0000E186E000E42
:10268000196E000E1A6E000E1B6E2550D8B44BEF5B
:1026900013F04DEF13F055EF13F02650D8A453EF7D
:1026A00013F055EF13F05FEF13F0000E146E000EF1
:1026B000156E000E166E000E176EF7EF14F01A501E
:1026C0001402F3CF2BF0F4CF2CF02B50216E226AA2
:1026D000236A246A2C50276E286A296A2A6A1950AC
:1026E0001502F3CF2BF0F4CF2CF02B502126000E47
:1026F0002222232224222C502726000E282229229F
:102700002A2218501602F3CF2BF0F4CF2CF02B50C6
:102710002126000E2222232224222C502726000EBE
:10272000282229222A2223C024F022C023F021C0FB
:1027300022F0216A18501502F3CF2BF0F4CF2CF0C1
:102740002B5021262C502222000E2322000E242260
:1027500019501402F3CF2BF0F4CF2CF02B5021267C
:102760002C502222000E2322000E242223C024F00B
:1027700022C023F021C022F0216A18501402F3CFA6
:102780002BF0F4CF2CF02B5021262C502222000EBF
:102790002322000E24221A501502F3CF2BF0F4CF7F
:1027A0002CF02B5027262C502822000E2922000E18
:1027B0002A2219501602F3CF2BF0F4CF2CF02B5015
:1027C00027262C502822000E2922000E2A221A50D9
:1027D0001602F3CF2BF0F4CF2CF02B501C6E2C50A4
:1027E0001D6E1E6A1F6A1EC01FF01DC01EF01CC099
:1027F0001DF01C6A1C5027261D5028221E5029221D
:102800001F502A2221C01CF022C01DF023C01EF040
:1028100024C01FF0190E12EF14F0D8901F321E3290
:102820001D321C32E82E0DEF14F01C5027261D50CF
:1028300028221E5029221F502A2223C024F022C001
:1028400023F021C022F0216A255026C01CF01D6A09
:102850001C26000E1D22820E1C242B6EFF0E1D2036
:102860002C6E48EF14F0D8902736283629362A36B1
:1028700024AE3DEF14F03FEF14F040EF14F027804A
:10288000D89021362236233624362B06D8A02C06A3
:1028900029AE4DEF14F04FEF14F033EF14F0000EAB
:1028A000256E24AE56EF14F058EF14F07CEF14F0C0
:1028B000FF0E21141C6EFF0E22141D6EFF0E23143A
:1028C0001E6E7F0E24141F6E1C501D101E101F1034
:1028D000D8B46DEF14F06FEF14F073EF14F0010E35
:1028E000256E7CEF14F027A078EF14F07AEF14F047
:1028F0007CEF14F06FEF14F02550D8B482EF14F091
:1029000084EF14F0A8EF14F0010E2726000E282201
:1029100029222A222AA08FEF14F091EF14F0A8EFB9
:1029200014F027C01CF028C01DF029C01EF02AC0DA
:102930001FF01F341F321E321D321C321CC027F004
:102940001DC028F01EC029F01FC02AF02B4A2C2AD7
:102950002CBEB3EF14F02C5008E12B28D8A0B3EF15
:1029600014F0B5EF14F0BFEF14F0000E276E000E58
:10297000286E800E296E7F0E2A6EEDEF14F02CBEAD
:10298000CCEF14F02C5006E12B04D8B0CAEF14F0B1
:10299000CCEF14F0D8EF14F0000E276E000E286E66
:1029A000000E296E000E2A6E000E206EEDEF14F060
:1029B0002BC026F0FF0E2716FF0E28167F0E2916B5
:1029C000000E2A1626A0E7EF14F0E9EF14F0EAEF64
:1029D00014F0298ED89026302A6E20502A1227C053
:1029E00014F028C015F029C016F02AC017F0120004
:1029F0000450800B116E04500424186E03AE03EFD4
:102A000015F005EF15F006EF15F018801850D8B442
:102A10000CEF15F00EEF15F023EF15F01828D8A4E1
:102A200014EF15F016EF15F01EEF15F0000E016E05
:102A3000000E026E000E036E000E046E038E000E7A
:102A4000046E2BEF15F0000E016E000E026E000EEC
:102A5000036E000E046E0850800B111A08500824F3
:102A6000196E07AE36EF15F038EF15F039EF15F0A7
:102A700019801950D8B43FEF15F041EF15F056EF1B
:102A800015F01928D8A447EF15F049EF15F051EFCC
:102A900015F0000E056E000E066E000E076E000E9D
:102AA000086E078E000E086E5EEF15F0000E056EC4
:102AB000000E066E000E076E000E086E0550061022
:102AC00007100810D8A467EF15F069EF15F081EF33
:102AD00015F0000E016E000E026E000E036E000E69
:102AE000046E800E03127F0E04121150041201C0F6
:102AF00001F002C002F003C003F004C004F0C4EF10
:102B000016F01850D8A487EF15F089EF15F093EF61
:102B100015F0000E016E000E026E000E036E000E28
:102B2000046EC4EF16F0195018C009F00A6A095E65
:102B3000000E0A5A7F0E0924126E000E0A20136E30
:102B400001C00DF002C00EF003C00FF004C010F081
:102B5000000E016E000E026E000E036E000E046E7B
:102B6000000E146E000E156E000E166E000E176E1F
:102B7000000E196EF4EF15F01950D8B4C2EF15F02D
:102B8000C4EF15F0DBEF15F0D8900D360E360F368A
:102B90001036D890013602360336043617AED3EF1E
:102BA00015F0D5EF15F0D6EF15F00180D89014365A
:102BB00015361636173605500D5C06500E58075060
:102BC0000F5808501058D8A0E8EF15F0EAEF15F0AC
:102BD000F3EF15F0178C05500D5E06500E5A075096
:102BE0000F5A0850105A192A190E1964FAEF15F0E5
:102BF000FCEF15F0BCEF15F00D500E100F1010107B
:102C0000D8B405EF16F007EF16F01FEF16F014809A
:102C10001FEF16F0D890013602360336043617AE91
:102C200014EF16F016EF16F017EF16F00180D8909B
:102C300014361536163617361206D8A0130603AE0C
:102C400024EF16F026EF16F00AEF16F0000E196EBC
:102C500017AE2DEF16F02FEF16F053EF16F0FF0E14
:102C60001414096EFF0E15140A6EFF0E16140B6E67
:102C70007F0E17140C6E09500A100B100C10D8B4EC
:102C800044EF16F046EF16F04AEF16F0010E196EFB
:102C900053EF16F001A04FEF16F051EF16F053EF7F
:102CA00016F046EF16F01950D8B459EF16F05BEF56
:102CB00016F07FEF16F0010E0126000E022203220D
:102CC000042204A066EF16F068EF16F07FEF16F00E
:102CD00001C009F002C00AF003C00BF004C00CF000
:102CE0000C340C320B320A32093209C001F00AC02E
:102CF00002F00BC003F00CC004F0124A132A13BEFA
:102D00008AEF16F0135008E11228D8A08AEF16F0C7
:102D10008CEF16F097EF16F0000E136E1268000E8F
:102D2000016E000E026E000E036E000E046E13BEE6
:102D3000A4EF16F0135006E11204D8B0A2EF16F07B
:102D4000A4EF16F0B2EF16F0000E136E000E126E26
:102D5000000E016E000E026E000E036E000E046E79
:102D6000000E116E12C018F018A0B9EF16F0BBEFEC
:102D700016F0BEEF16F0038EBFEF16F0039ED8904C
:102D80001830046E75EF15F012000001FBBFCBEF99
:102D900016F0CDEF16F0CEEF16F0FC93FBBFDBEF95
:102DA00016F0FB5106E1FA05D8B0D9EF16F0DBEFCB
:102DB00016F0E1EF16F0000E346E010E336EE5EF03
:102DC00016F0FAC033F0FBC034F00AC135F00BC185
:102DD00036F0FCA9EEEF16F0F0EF16F0F4EF16F077
:102DE000FE0E3526FF0E36221EC037F01FC038F00B
:102DF00020C039F021C03AF022C03BF023C03CF0A3
:102E000024C03DF025C03EF0000E406E4F0E3F6ED8
:102E1000000E0101636FC0EF17F03F06D8A0400617
:102E20000F0E3714416E426A42BE20EF17F0425037
:102E300009E10A0E415CD8A020EF17F022EF17F04D
:102E40002AEF17F0570E4124416E000E4220426EC9
:102E500030EF17F0300E4124416E000E4220426EDA
:102E6000BF0E276EFF0E286E2650296E2A6A275045
:102E7000292628502A222A500AE11A0E295CD8A0B5
:102E800044EF17F047EF17F0010E48EF17F0000E70
:102E90002F6E306A2F503010D8B451EF17F053EF27
:102EA00017F083EF17F09F0E276EFF0E286E200E8F
:102EB0004110296E000E42102A6E275029262850F4
:102EC0002A222A500AE11A0E295CD8A06AEF17F0CC
:102ED0006DEF17F0010E6EEF17F0000E316E326AD3
:102EE00031503210D8B477EF17F079EF17F083EF45
:102EF00017F041C007F042C008F03DEC20F007C0D9
:102F000041F008C042F0140E3F24D96E010E40205B
:102F1000DA6E41C0DFFF3306D8A034063506D8A0EC
:102F2000360637C027F038C028F039C029F03AC03B
:102F30002AF03BC02BF03CC02CF03DC02DF03EC031
:102F40002EF0050EADEF17F0D8902E322D322C3228
:102F50002B322A32293228322732E82EA4EF17F0FA
:102F600027C037F028C038F029C039F02AC03AF01D
:102F70002BC03BF02CC03CF02DC03DF02EC03EF0ED
:102F800040BECCEF17F0405009E1020E3F5CD8A0E4
:102F9000CCEF17F0CEEF17F0FFEF17F037503810E7
:102FA00039103A103B103C103D103E10D8A4DBEF16
:102FB00017F0DDEF17F00DEF17F034BEEAEF17F062
:102FC000345006E13304D8B0E8EF17F0EAEF17F019
:102FD0000DEF17F036BEF5EF17F0365008E1350467
:102FE000D8A0F5EF17F0F7EF17F0FFEF17F000019B
:102FF000FCB3FDEF17F0FFEF17F00DEF17F0000136
:10300000FCA905EF18F007EF18F01DEF18F03F06C8
:10301000D8A04006140E3F24D96E010E4020DA6E6F
:1030200026C0DFFF3F06D8A04006140E3F24D96E0D
:10303000010E4020DA6E300EDF6E1CC011F01DC094
:1030400012F0140E3F24136E010E4020146E35C092
:1030500015F036C016F065EC1DF011C01CF012C062
:103060001DF0120000C12AF001C12BF002C12CF0AA
:1030700003C12DF01AC02AF01BC02BF01CC02CF08D
:103080001DC02DF0810E1E6EFF0E1F6E2AC020F097
:103090002BC021F02CC022F02DC023F0180E56EFCB
:1030A00018F0D8902332223221322032E82E51EF0C
:1030B00018F020501E24286E000E1F20296E29BEF5
:1030C0006BEF18F0295009E1170E285CD8A06BEFC0
:1030D00018F06DEF18F077EF18F01AC01AF01BC057
:1030E0001BF01CC01CF01DC01DF03AEF19F029BEEA
:1030F0007CEF18F07EEF18F0EEEF18F028C01EF00D
:10310000FF0E1F6EFF0E206E7F0E216E000E226ED0
:103110001E668DEF18F095EF18F02234223221321E
:1031200020321F321E2E88EF18F01FC024F020C05E
:1031300025F021C026F022C027F024502A141E6E4C
:1031400025502B141F6E26502C14206E27502D1442
:10315000216E1E501F1020102110D8A4B2EF18F0BD
:10316000B4EF18F0B6EF18F06DEF18F02AC01EF0AB
:103170002BC01FF02CC020F02DC021F0200EC6EF78
:1031800018F0D890213220321F321E32E82EC1EFC3
:1031900018F01E501F1020102110D8B4D2EF18F0D4
:1031A000D4EF18F0DCEF18F024502A2625502B22FB
:1031B00026502C2227502D22241C1E6E251C1F6EEB
:1031C000261C206E271C216E1E502A161F502B16FF
:1031D00020502C1621502D1632EF19F02AC01EF067
:1031E0002BC01FF02CC020F02DC021F0200EFEEFD0
:1031F00018F0D890213220321F321E32E82EF9EF1B
:1032000018F01E501F1020102110D8A40AEF19F03A
:103210000CEF19F016EF19F0000E2A6E000E2B6E4F
:10322000000E2C6E000E2D6E32EF19F0D8902A345D
:103230001E6E2B341F6E2C34206E2D34216E1E50CA
:103240001F1020102110D8B428EF19F02AEF19F020
:1032500032EF19F0000E2A6E000E2B6E800E2C6ECF
:10326000BF0E2D6E2AC01AF02BC01BF02CC01CF014
:103270002DC01DF01200000E166E000E156E000E11
:103280000F6E000E0E6E47EF19F0084A092A010E64
:10329000146E08C0F6FF09C0F7FFF86A070EF7645E
:1032A00003D00800F55005D0F6CFE1FFF7CFE2FFDD
:1032B000E750200AD8B45FEF19F061EF19F088EFFA
:1032C00019F0F70E0A6EFF0E0B6E08C0F6FF09C06C
:1032D000F7FFF86A070EF76403D00800F55005D031
:1032E000F6CFE1FFF7CFE2FFE7500C6E0D6A0A5010
:1032F0000C260B500D220D5009E1050E0C5CD8A0D8
:1033000084EF19F086EF19F088EF19F0000E146EB3
:1033100014C010F0116A10501110D8A492EF19F0D7
:1033200094EF19F045EF19F09EEF19F0000E0F6EB3
:10333000010E0E6E084A092AE9EF19F008C0F6FFDF
:1033400009C0F7FFF86A070EF76403D00800F550CC
:1033500005D0F6CFE1FFF7CFE2FFE7500A6E0B6A28
:103360000B50000AD8B4B7EF19F0E9EF19F00A5082
:103370002B0AD8B49AEF19F0060AD8B496EF19F0D0
:10338000E9EF19F015C001F016C002F0000E046E4E
:103390000A0E036E38EC23F008C0F6FF09C0F7FFF1
:1033A000F86A070EF76403D00800F55005D0F6CF91
:1033B000E1FFF7CFE2FFE7500A6E0A50015E000E10
:1033C000025A300E0124156E000E0220166E9AEF7E
:1033D00019F0D00E0A6EFF0E0B6E08C0F6FF09C082
:1033E000F7FFF86A070EF76403D00800F55005D020
:1033F000F6CFE1FFF7CFE2FFE7500C6E0D6A0A50FF
:103400000C260B500D220D500AE10A0E0C5CD8A0C0
:103410000CEF1AF00FEF1AF0010E10EF1AF0000E79
:10342000126E136A12501310D8A419EF1AF01BEF82
:103430001AF0C2EF19F00E500F10D8A422EF1AF0B4
:1034400024EF1AF032EF1AF015C00AF016C00BF094
:103450000A1E0B1E0A4A0B2A0AC008F00BC009F00C
:1034600036EF1AF015C008F016C009F012000E6E03
:103470000E50D8B43EEF1AF040EF1AF062EF1AF097
:1034800009BE47EF1AF045EF1AF062EF1AF006C0D6
:103490000AF007C00BF008C00CF009C00DF00A1EBE
:1034A0000B1E0C1E0D1E0A2A000E0B220C220D22D2
:1034B0000AC010F00BC011F00CC012F00DC013F0D8
:1034C0006AEF1AF006C010F007C011F008C012F041
:1034D00009C013F00650071008100910D8A473EFA4
:1034E0001AF075EF1AF07FEF1AF0000E066E000E5C
:1034F000076E000E086E000E096E10EF1BF0960EA0
:103500000F6E89EF1AF00F2AD8901332123211324F
:103510001032000E10140A6E000E11140B6E000E05
:1035200012140C6EFE0E13140D6E0A500B100C10BC
:103530000D10D8A49EEF1AF0A0EF1AF083EF1AF046
:10354000AEEF1AF00F2A010E1026000E11221222E1
:103550001322D8901332123211321032000E10148E
:103560000A6E000E11140B6E000E12140C6EFF0E7C
:1035700013140D6E0A500B100C100D10D8A4C3EFCD
:103580001AF0C5EF1AF0A2EF1AF0CDEF1AF00F06FD
:10359000D890103611361236133612BED2EF1AF00A
:1035A000D4EF1AF0DCEF1AF0020E0F60DAEF1AF027
:1035B000DCEF1AF0C7EF1AF00FB0E1EF1AF0E3EF0B
:1035C0001AF0E4EF1AF0129ED8900F320FC00AF0F2
:1035D0000B6A0C6A0D6A0AC00DF00C6A0B6A0A6A63
:1035E0000A5010120B5011120C5012120D501312DF
:1035F0000E50D8B4FEEF1AF000EF1BF008EF1BF0EE
:1036000009BE07EF1BF005EF1BF008EF1BF0138E50
:1036100010C006F011C007F012C008F013C009F086
:103620001200033404340A6E0A50D8A41AEF1BF0B7
:103630001CEF1BF026EF1BF0000E016E000E026E59
:10364000000E036E000E046E93EF1BF001C005F038
:1036500002C006F003C007F004C008F0200E36EFE9
:103660001BF0D8900832073206320532E82E31EFCF
:103670001BF00550096E038EFF0E0116FF0E021699
:10368000FF0E0316000E0416960E0A5E0ABE4DEFDC
:103690001BF04BEF1BF063EF1BF00A50800A970FF3
:1036A000D8B055EF1BF057EF1BF059EF1BF01CEF94
:1036B0001BF0D89004320332023201320A3E59EF35
:1036C0001BF07BEF1BF01F0E0A6469EF1BF06BEF22
:1036D0001BF073EF1BF01CEF1BF0D8900136023685
:1036E000033604360A060A50D8A479EF1BF07BEFA4
:1036F0001BF06DEF1BF00950D8B481EF1BF083EF86
:103700001BF08BEF1BF0041E031E021E016C000E4B
:1037100002220322042201C001F002C002F003C011
:1037200003F004C004F01200000E2D14356E000EDC
:103730002E14366E800E2F14376E7F0E3014386EB6
:103740003550361037103810D8A4A9EF1BF0ABEF66
:103750001BF0B3EF1BF0000E2D6E000E2E6E000E50
:103760002F6E000E306E000E3114356E000E3214C6
:10377000366E800E3314376E7F0E3414386E35502B
:10378000361037103810D8A4C8EF1BF0CAEF1BF062
:10379000D2EF1BF0000E316E000E326E000E336E53
:1037A000000E346E30AED7EF1BF0D9EF1BF0E2EF16
:1037B0001BF02D6C2E1ED8B02E2A2F1ED8B02F2A0B
:1037C000800E305634AEE7EF1BF0E9EF1BF0F2EF5E
:1037D0001BF0316C321ED8B0322A331ED8B0332AD7
:1037E000800E3456000E2D1A000E2E1A000E2F1ABF
:1037F000800E301A000E311A000E321A000E331AE3
:10380000800E341A31502D5C32502E5833502F58C0
:1038100034503058D8B00FEF1CF011EF1CF014EFFB
:103820001CF0D89015EF1CF0D880120004C10BF0EA
:1038300005C10CF006C10DF007C10EF001C00BF080
:1038400002C00CF003C00DF004C00EF00BC005F078
:103850000CC006F00DC007F00EC008F0180E36EFD1
:103860001CF0D8900832073206320532E82E31EFCC
:103870001CF00550096E0A6A09500A10D8A443EFDB
:103880001CF045EF1CF065EF1CF0D8900B34056E72
:103890000C34066E0D34076E0E34086E055006109B
:1038A00007100810D8A457EF1CF059EF1CF05FEF79
:1038B0001CF0000E026E020E016E94EF1CF0000E62
:1038C000026E030E016E94EF1CF009280A10D8A4B2
:1038D0006CEF1CF06EEF1CF090EF1CF00BC005F0CD
:1038E0000CC006F00DC007F00EC008F0090ED8900D
:1038F0000536063607360836E82E77EF1CF00550F9
:10390000061007100810D8B488EF1CF08BEF1CF0DD
:10391000010E8CEF1CF0000E016E026A94EF1CF099
:10392000000E026E040E016E120001C008F002C00B
:1039300009F003C00AF004C00BF00506D8A0060683
:10394000052806E10628D8A4A8EF1CF0AAEF1CF071
:10395000B7EF1CF0000E026E000E016EFFEF1CF0C0
:10396000084A092A0A4A0B2A0506D8A0060608C0F2
:10397000D9FF09C0DAFFDF50D8B4C1EF1CF0C3EFA4
:103980001CF0EEEF1CF00AC0F6FF0BC0F7FF0800BA
:10399000F5500009D8B4CFEF1CF0D1EF1CF0EEEFDA
:1039A0001CF005500610D8B4D8EF1CF0DAEF1CF06C
:1039B000EEEF1CF008C0D9FF09C0DAFFDF50076E38
:1039C0000AC0F6FF0BC0F7FF0800F5500718D8B47F
:1039D000ECEF1CF0EEEF1CF0B0EF1CF008C0D9FFCC
:1039E00009C0DAFFDF50076E0AC0F6FF0BC0F7FF11
:1039F0000800F550075C016E026AD8A002061200AA
:103A000003500410D8B407EF1DF009EF1DF012EFBA
:103A10001DF003500410D8A410EF1DF012EF1DF09C
:103A200017EF1DF00150AAEC23F064EF1DF020EE1B
:103A300004F00350D9260450DA22DE50DE10D8B448
:103A400024EF1DF026EF1DF041EF1DF020EE04F0F5
:103A50000350D9260450DA2210EE02F00350E1267A
:103A60000450E222DE50E65CE650800A096EDE5029
:103A7000800A0958D8B03FEF1DF041EF1DF064EF08
:103A80001DF020EE02F00350D9260450DA22DECFDA
:103A900005F0DDCF06F003C0D9FF04C0DAFFDECFAA
:103AA00007F0DDCF08F005500724D96E0650082036
:103AB000DA6E01C0DFFF20EE02F00350D926045079
:103AC000DA22DE2A000EDD2212000001FCA16BEFDB
:103AD0001DF06DEF1DF077EF1DF013C00AF014C05C
:103AE0000BF011C00CF012C00DF0B4EC21F016BEBA
:103AF0007CEF1DF07EEF1DF084EF1DF015C01AF075
:103B000016C01BF088EF1DF0000E1B6E000E1A6E23
:103B1000000E196E000E186E9AEF1DF0000E026E68
:103B2000200E016E11C003F012C004F000EC1DF075
:103B3000184A192A1A50185C1950800A176E1B501F
:103B4000800A1758D8A0A7EF1DF0A9EF1DF08EEF3F
:103B50001DF00001FCB1AFEF1DF0B1EF1DF0BBEFA8
:103B60001DF013C00AF014C00BF011C00CF012C00D
:103B70000DF0B4EC21F013C001F014C002F0D8EC49
:103B800022F01A500124116E1B500220126E1200F6
:103B9000000E066E04BED1EF1DF0CFEF1DF0D7EF83
:103BA0001DF0036C041ED8B0042A010E066E02BE7E
:103BB000DEEF1DF0DCEF1DF0E4EF1DF0016C021EE6
:103BC000D8B0022A010E061A000E086E000E076E0B
:103BD00003500410D8B4EFEF1DF0F1EF1DF019EF12
:103BE0001EF0010E056EF9EF1DF0D8900336043675
:103BF000052A04AEFEEF1DF000EF1EF0F5EF1DF0FC
:103C0000D890073608360350015C04500258D8A0FB
:103C10000CEF1EF00EEF1EF013EF1EF00350015ECE
:103C20000450025A0780D89004320332052E00EF68
:103C30001EF00650D8B41FEF1EF021EF1EF025EF46
:103C40001EF0076C081ED8B0082A07C001F008C093
:103C500002F01200010EF66E080EF76E20EE01F073
:103C6000100E0900F5CFDEFFE806FBE2000E136E32
:103C7000000E126E000E156E010E146E1438F00B4D
:103C80008C6E83A046EF1EF048EF1EF04AEF1EF048
:103C90007BEF1EF0124A132A83A251EF1EF053EF5E
:103CA0001EF055EF1EF07BEF1EF0124A132A83A47C
:103CB0005CEF1EF05EEF1EF060EF1EF07BEF1EF07B
:103CC000124A132A83A667EF1EF069EF1EF06BEF0E
:103CD0001EF07BEF1EF0124A132AD89014361536C8
:103CE000155009E1100E145CD8A079EF1EF07BEF9F
:103CF0001EF03EEF1EF0000E836E010E1224D96EF0
:103D0000000E1320DA6EDF501200000E066E02BEA7
:103D10008EEF1EF08CEF1EF094EF1EF0016C021E71
:103D2000D8B0022A010E066E04BE9BEF1EF099EF7A
:103D30001EF09FEF1EF0036C041ED8B0042A03503F
:103D40000410D8B4A6EF1EF0A8EF1EF0CCEF1EF0C2
:103D5000010E056EB0EF1EF0D89003360436052A2A
:103D600004AEB5EF1EF0B7EF1EF0ACEF1EF003503F
:103D7000015C04500258D8A0C0EF1EF0C2EF1EF044
:103D8000C6EF1EF00350015E0450025AD890043270
:103D90000332052EB7EF1EF00650D8B4D2EF1EF056
:103DA000D4EF1EF0D8EF1EF0016C021ED8B0022A2C
:103DB00001C001F002C002F01200000E0114096EF1
:103DC000000E02140A6E800E03140B6E7F0E041494
:103DD0000C6E09500A100B100C10D8A4F2EF1EF054
:103DE000F4EF1EF0FCEF1EF0000E016E000E026EEE
:103DF000000E036E000E046E000E0514096E000E18
:103E000006140A6E800E07140B6E7F0E08140C6EDB
:103E100009500A100B100C10D8A411EF1FF013EF6B
:103E20001FF01BEF1FF0000E056E000E066E000E59
:103E3000076E000E086E055001180FE106500218BB
:103E40000CE10750031809E108500418D8B42BEF0F
:103E50001FF02DEF1FF030EF1FF0D89031EF1FF063
:103E6000D8801200000E0A6E000E096E52EF1FF08D
:103E700009500524076E0A500620086E07C0F6FF99
:103E800008C0F7FFF86A070EF76403D00800F55082
:103E900005D0F6CFE1FFF7CFE2FFE750BCEC22F010
:103EA000094A0A2A09500524076E0A500620086E9E
:103EB00007C0F6FF08C0F7FFF86A070EF76403D0E3
:103EC0000800F55005D0F6CFE1FFF7CFE2FFE7504D
:103ED0000009D8A46EEF1FF070EF1FF038EF1FF04D
:103EE0001200000E9AEC20F0340E046EF20EE82E52
:103EF000FED7042EFCD7030E5CEC23F00D0E046EEF
:103F0000FC0EE82EFED7042EFCD7030E5CEC23F04B
:103F10001D0E046E910EE82EFED7042EFCD700F085
:103F2000030E5CEC23F0020E5CEC23F0020E5CEC62
:103F300023F0080E5CEC23F0000E5CEC23F00C0E7A
:103F40005CEC23F0000E5CEC23F0060E5CEC23F03E
:103F50001200056E0504D8A4B0EF1FF0B2EF1FF0F9
:103F6000C3EF1FF004507F0F086E08380F0B066E6A
:103F700008500F0B076E06505CEC23F007505CEC0A
:103F800023F0DBEF1FF0020E0518D8A4CAEF1FF0D4
:103F9000CCEF1FF0DBEF1FF00450BF0F086E0838A6
:103FA0000F0B066E08500F0B076E06505CEC23F0EB
:103FB00007505CEC23F0120051C055F052C056F08F
:103FC000000E0101096F000E086FFAEF1FF04FC0DD
:103FD00045F050C046F0550E476E000E486E53C077
:103FE00049F054C04AF0DAEC0DF0455001010827C1
:103FF0004650092355C0F6FF56C0F7FF0800F5509C
:104000000009D8A406EF20F008EF20F0E7EF1FF03A
:1040100008C14FF009C150F01200BF0E096EFF0E2B
:104020000A6E07C00BF008C00CF009500B260A50AE
:104030000C220C500AE11A0E0B5CD8A022EF20F0E3
:1040400025EF20F0010E26EF20F0000E0D6E0E6A17
:104050000D500E10D8B42FEF20F031EF20F038EFD4
:1040600020F0200E0710076E0850086E3CEF20F07D
:1040700007C007F008C008F012009F0E096EFF0E7F
:104080000A6E07C00BF008C00CF009500B260A504E
:104090000C220C500AE11A0E0B5CD8A052EF20F053
:1040A00055EF20F0010E56EF20F0000E0D6E0E6A57
:1040B0000D500E10D8B45FEF20F061EF20F067EFE5
:1040C00020F05F0E0714076E086A6BEF20F007C040
:1040D00007F008C008F0120003C007F004C008F0A1
:1040E00001C009F002C00AF00750056E0850066EC4
:1040F000074A082A05C0F6FF06C0F7FFF86A09C09C
:10410000D9FF0AC0DAFF094A0A2A070EF76403D06A
:104110000800F55005D0F6CFE1FFF7CFE2FFE750FA
:10412000DF6EDF50D8A497EF20F099EF20F074EF06
:1041300020F01200016E01A0A0EF20F0A2EF20F00D
:10414000A5EF20F08188A6EF20F0819801A2ABEFC7
:1041500020F0ADEF20F0B0EF20F0818AB1EF20F039
:10416000819A01A4B6EF20F0B8EF20F0BBEF20F069
:10417000818CBCEF20F0819C01A6C1EF20F0C3EF41
:1041800020F0C6EF20F0818EC7EF20F0819E120054
:10419000420EF66E460EF76E000EF86E01EE68F0F7
:1041A00010EE2DF00900F5CFEEFFE550E150FAE1F9
:1041B000560EF66E470EF76E000EF86E0900F5CF3C
:1041C0005FF001EE00F0680EEE6AE806FDE1000126
:1041D000FF6BFE6BFD6BFC6BFB6BFA6B000EF86EFE
:1041E0000001D6EF21F05B0E0001AE6F000EAF6F45
:1041F00057C0B0F058C0B1F0000EB36F000EB26FF0
:10420000000EB56F000EB46FB00E4F6E000E506E04
:1042100059C051F05AC052F0AE0E536E000E546E9B
:10422000DCEC1FF00001B2515724D96EB351582075
:10423000DA6E000EDF6E1200010E076E200E0118FE
:104240000210D8B426EF21F028EF21F041EF21F041
:10425000F70E036EFF0E046E01C005F002C006F0FB
:104260000350052604500622065009E1050E055CA0
:10427000D8A03DEF21F03FEF21F041EF21F0000EFB
:10428000076E07C001F0026A1200056E0C0EC16EC7
:104290004EEF21F0020EC26E5FEF21F00550036E6B
:1042A000046A0450000AD8B458EF21F05FEF21F0FF
:1042B0000350000AD8B44AEF21F05FEF21F0290E35
:1042C000C06EC280C282C2B268EF21F06AEF21F0F4
:1042D00063EF21F0C4CF01F0026A1200000E311A20
:1042E000000E321A000E331A800E341A2DC001F05F
:1042F0002EC002F02FC003F030C004F031C005F032
:1043000032C006F033C007F034C008F083EC10F080
:1043100001C02DF002C02EF003C02FF004C030F019
:104320001200046ED00EF3EC22F004504BEC23F09C
:10433000D10E0AEC23F0000E13EC22F0036E0350B2
:104340000101126F136B000E13EC22F0036E035089
:104350000101106F116B010E13EC22F0036E03507C
:1043600001010E6F0F6B1200000E106E000E0F6E2B
:10437000C5EF21F00EC001F0026A0CC003F00DC0C1
:1043800004F000EC1DF00F4A102A0F500A24D96ED9
:1043900010500B20DA6EDF500E6E0E50D8A4D3EF03
:1043A00021F0D5EF21F0BAEF21F01200000E936E4C
:1043B0000F0EC16EA7EC23F071EC1FF0A0EC23F000
:1043C000060E046E010EA9EC1FF0650E056E080EB8
:1043D000066E32EC1FF093C1F8F094C1F9F030ECA6
:1043E00022F0EBEF21F000EF00F09F0E036EFF0EC6
:1043F000046E200E0110056E000E0210066E0350B2
:1044000005260450062206500AE11A0E055CD8A0C3
:104410000CEF22F00FEF22F0010E10EF22F0000E51
:10442000016E026A1200016EC586C7A01AEF22F063
:104430001CEF22F015EF22F0C9CF02F00150D8A4F2
:1044400024EF22F026EF22F02AEF22F083EC23F073
:104450002CEF22F079EC23F097EC23F002501200BD
:104460003DEF22F0C80E00D000D0E82EFCD771EC52
:104470000AF00001F807D8A0F9070001F9BF4BEFD7
:1044800022F0F95106E1F805D8B049EF22F04BEFE0
:1044900022F032EF22F012009F0E036EFF0E046E28
:1044A00001C005F002C006F00350052604500622A4
:1044B00006500AE11A0E055CD8A061EF22F064EF05
:1044C00022F0010E65EF22F0000E016E026A12006A
:1044D000BF0E036EFF0E046E01C005F002C006F0B1
:1044E000035005260450062206500AE11A0E055C08
:1044F000D8A07DEF22F080EF22F0010E81EF22F0B4
:10450000000E016E026A1200015002100310041026
:10451000D8B48DEF22F08FEF22F097EF22F0000E4B
:10452000011A000E021A000E031A800E041A01C0AE
:1045300001F002C002F003C003F004C004F0120056
:10454000D00E036EFF0E046E01C005F002C006F02F
:10455000035005260450062206500AE10A0E055CA7
:10456000D8A0B5EF22F0B8EF22F0010EB9EF22F09B
:10457000000E016E026A1200046E04500F0B026EF0
:104580000450F00B036E818403380F0B9AEC20F07B
:1045900081861A0EE82EFED700D0819602509AEC42
:1045A00020F081861A0EE82EFED700D081961200E8
:1045B00001C003F002C004F0E0EF22F0014A022A39
:1045C00001C0D9FF02C0DAFFDF50D8A4EAEF22F021
:1045D000ECEF22F0DEEF22F00350015C016E04509C
:1045E0000258026E1200026EC580C5B0FAEF22F0CA
:1045F000FCEF22F0F5EF22F09E96C7B602EF23F013
:1046000004EF23F006EF23F009EF23F002504BEC08
:1046100023F01200026EC582C5B211EF23F013EF32
:1046200023F00CEF23F09E96C7B619EF23F01BEF93
:1046300023F01DEF23F020EF23F002504BEC23F08A
:10464000120074656D7065726174757261207265B7
:1046500067756C61720D0074656D7065726174755B
:0F466000726120616C74610D0032303230640081
:1046700001500302F3CF05F0F4CF06F0015004021D
:10468000F350062602500302F350062605C001F03F
:1046900006C002F01200016E01C0C9FF97EC23F0C2
:1046A000C5AC55EF23F057EF23F05AEF23F0010E7E
:1046B0005BEF23F0020E1200036E819403509AEC1C
:1046C00020F081860B0E026E620EE82EFED7022EBF
:1046D000FCD700D08196120093809382500EC76E53
:1046E000280EC66E000EC56E130EC86E9D869E9671
:1046F0001200C58AC588C5B880EF23F082EF23F089
:104700007BEF23F01200C59AC588C5B88AEF23F065
:104710008CEF23F085EF23F01200C584C5B493EF2E
:1047200023F095EF23F08EEF23F0C75012009EA6E2
:104730009CEF23F09EEF23F097EF23F09E9612005C
:10474000000E5CEC23F0010E5CEC23F012000F0E67
:07475000956E120012004EED
:020000040020DA
:08000000FFFFFFFFFFFFFFFF00
:020000040030CA
:0E00000000051F1FFF8385FF0FC00FE00F409C
:00000001FF
