:020000040000FA
:040000008BEF13F07F
:10080000003738392F3435362A3132332D0D303D0B
:100810002B002020202020202020202020202020ED
:1008200020202020202000636F6E7472617365F1B8
:100830006120696E76616C69646100636F6E7472C9
:10084000617365F16120636F727265637461005456
:10085000454D5045524154555241005445434C4139
:10086000444F0025642563430000FEEC10F00001B6
:100870006B6F010E926E8096809A8088F5EF06F07D
:100880006B51D8B446EF04F048EF04F016EF07F0D0
:10089000D00E9A6FFF0E9B6F6B519C6F9D6B9A51A0
:1008A0009C279B519D239D510AE10A0E9C5DD8A077
:1008B0005CEF04F05FEF04F0010E60EF04F0000E57
:1008C000AC6FAD6BAC51AD11D8B469EF04F06BEF08
:1008D00004F016EF07F06BC08CF0010E6A6F010E8A
:1008E000046E020ED0EC11F0120E056E080E066EAC
:1008F00059EC11F0080E046E020ED0EC11F02A0E25
:100900006FEC13F0050E00019B6F0F0E9A6FF10E46
:10091000E82EFED79A2FFCD79B2FFAD716EF07F0B9
:100920006B51D8B496EF04F098EF04F016EF07F08F
:10093000D00E9A6FFF0E9B6F6B519C6F9D6B9A51FF
:100940009C279B519D239D510AE10A0E9C5DD8A0D6
:10095000ACEF04F0AFEF04F0010EB0EF04F0000EC6
:10096000AE6FAF6BAE51AF11D8B4B9EF04F0BBEFBF
:1009700004F016EF07F06BC08DF0020E6A6F090EDF
:10098000046E020ED0EC11F02A0E6FEC13F082EF21
:1009900004F06B51D8B4CFEF04F0D1EF04F016EFB0
:1009A00007F0D00E9A6FFF0E9B6F6B519C6F9D6B83
:1009B0009A519C279B519D239D510AE10A0E9C5DF3
:1009C000D8A0E5EF04F0E8EF04F0010EE9EF04F041
:1009D000000EB06FB16BB051B111D8B4F2EF04F0AA
:1009E000F4EF04F016EF07F06BC08EF0030E6A6FA1
:1009F0000A0E046E020ED0EC11F02A0E6FEC13F00A
:100A000082EF04F06B51D8B408EF05F00AEF05F05F
:100A100016EF07F0D00E9A6FFF0E9B6F6B519C6F15
:100A20009D6B9A519C279B519D239D510AE10A0E73
:100A30009C5DD8A01EEF05F021EF05F0010E22EF1E
:100A400005F0000EB26FB36BB251B311D8B42BEFF7
:100A500005F02DEF05F016EF07F06BC08FF0040ED8
:100A60006A6F0B0E046E020ED0EC11F02A0E6FECC2
:100A700013F082EF04F06B51D8B441EF05F043EF6F
:100A800005F068EF05F03D0E6B19D8B44AEF05F09C
:100A90004CEF05F068EF05F0000E6A6F080E046E6B
:100AA000020ED0EC11F0200E056E080E066E59EC09
:100AB00011F0070E00019B6F170E9A6F6A0EE82E59
:100AC000FED79A2FFCD79B2FFAD700F016EF07F02E
:100AD0006B51D8B46EEF05F070EF05F016EF07F02C
:100AE0003D0E6B19D8A477EF05F079EF05F016EFFE
:100AF00007F0000EBD6F000EBC6F8C0EBC25D96ECA
:100B0000000EBD21DA6EE70EBC25E16E000EBD21A0
:100B1000E26EDE50E618D8A490EF05F092EF05F0F3
:100B200094EF05F0684B692BBC4BBD2BBDBFA2EF0A
:100B300005F0BD5109E1040EBC5DD8A0A2EF05F09F
:100B4000A4EF05F07DEF05F0040E68196911D8A433
:100B5000ACEF05F0AEEF05F0D9EF06F0010E046E34
:100B6000020ED0EC11F03B0E056E080E066E59EC2D
:100B700011F0070E00019B6F170E9A6F6A0EE82E98
:100B8000FED79A2FFCD79B2FFAD700F08198819A35
:100B9000819C819E0F0EC16EFBEC13F0010E926ED4
:100BA000060E046E010ED0EC11F04F0E056E080E0D
:100BB000066E59EC11F0808A8098949CAC9CAC8AAB
:100BC000AC98AC94B896AB8E0C0EAF6ECCEF06F032
:100BD0000A0E186ED70E196EA30E1A6E3C0E1B6EFF
:100BE000000ED6EC12F001C006F002C007F0000EB5
:100BF00007BEFF0E086E096E010EB0EC0BF006C0CA
:100C000014F007C015F008C016F009C017F017EC73
:100C100007F014C0A8F015C0A9F016C0AAF017C0BC
:100C2000ABF0A8C014F0A9C015F0AAC016F0ABC074
:100C300017F0000E186E000E196EC80E1A6E420ED6
:100C40001B6E17EC07F014C0B4F015C0B5F016C059
:100C5000B6F017C0B7F09E0E596E000E5A6E630EB6
:100C60005B6E080E5C6EB4C001F0B5C002F0B6C099
:100C700003F0B7C004F0C5EC0EF001C05DF002C097
:100C80005EF062EC12F0060E046E020ED0EC11F073
:100C90009E0E056E000E066E59EC11F0000E016EF0
:100CA000000E026EF00E036E410E046EB4C005F02D
:100CB000B5C006F0B6C007F0B7C008F048EC0FF0BA
:100CC000D8B065EF06F067EF06F0A2EF06F0440E2D
:100CD0000001ED19D8A46FEF06F071EF06F074EF84
:100CE00006F0809477EF06F04E0EED6F8084000ED4
:100CF000B96F000EB86FB9BF87EF06F0B95109E1BF
:100D0000120EB85DD8A087EF06F089EF06F08BEFE2
:100D100006F09FEF06F0ACA290EF06F092EF06F01F
:100D20008BEF06F0D50E0001B825D96E000EB92163
:100D3000DA6EDF50AD6EB84BB92B7BEF06F08086D4
:100D4000CCEF06F0000E0001BB6F000EBA6FBBBF08
:100D5000B3EF06F0BB5109E1150EBA5DD8A0B3EFB1
:100D600006F0B5EF06F0B7EF06F0CBEF06F0ACA259
:100D7000BCEF06F0BEEF06F0B7EF06F0C00E0001C4
:100D8000BA25D96E000EBB21DA6EDF50AD6EBA4BBC
:100D9000BB2BA7EF06F08096040E000168196911BD
:100DA000D8B4D5EF06F0D7EF06F0E8EF05F016EF70
:100DB00007F0000E906F8C0E086E000E096E8AEC24
:100DC0000CF008C0EBF009C0ECF0000E00016A6FF7
:100DD000010E046E020ED0EC11F0270E056E080E07
:100DE000066E59EC11F059EF05F06A519A6F9B6B42
:100DF0009B51000AD8B4FFEF06F016EF07F09A51A6
:100E0000000AD8B440EF04F0010AD8B490EF04F01F
:100E1000030AD8B4C9EF04F0010AD8B402EF05F010
:100E2000070AD8B43BEF05F016EF07F01200175091
:100E3000800B206E17501724266E16AE22EF07F097
:100E400024EF07F025EF07F026802650D8B42BEFCB
:100E500007F02DEF07F040EF07F02628D8A433EF76
:100E600007F035EF07F03DEF07F0000E146E000EAF
:100E7000156E000E166E000E176E168E48EF07F0F8
:100E8000000E146E000E156E000E166E000E176E1C
:100E90001B50800B201A1B501B24256E1AAE53EFDB
:100EA00007F055EF07F056EF07F025802550D8B42E
:100EB0005CEF07F05EEF07F071EF07F02528D8A48C
:100EC00064EF07F066EF07F06EEF07F0000E186EA4
:100ED000000E196E000E1A6E000E1B6E1A8E79EF40
:100EE00007F0000E186E000E196E000E1A6E000E3E
:100EF0001B6E2550D8B47FEF07F081EF07F089EF24
:100F000007F02650D8A487EF07F089EF07F093EF9A
:100F100007F0000E146E000E156E000E166E000E19
:100F2000176E2BEF09F01A501402F3CF2BF0F4CF09
:100F30002CF02B50216E226A236A246A2C50276ED3
:100F4000286A296A2A6A19501502F3CF2BF0F4CFC8
:100F50002CF02B502126000E2222232224222C505A
:100F60002726000E282229222A2218501602F3CF03
:100F70002BF0F4CF2CF02B502126000E222223221E
:100F800024222C502726000E282229222A2223C080
:100F900024F022C023F021C022F0216A185015024B
:100FA000F3CF2BF0F4CF2CF02B5021262C50222203
:100FB000000E2322000E242219501402F3CF2BF02E
:100FC000F4CF2CF02B5021262C502222000E23226D
:100FD000000E242223C024F022C023F021C022F0DE
:100FE000216A18501402F3CF2BF0F4CF2CF02B50C1
:100FF00021262C502222000E2322000E24221A50D9
:101000001502F3CF2BF0F4CF2CF02B5027262C50C9
:101010002822000E2922000E2A2219501602F3CF90
:101020002BF0F4CF2CF02B5027262C502822000E2A
:101030002922000E2A221A501602F3CF2BF0F4CFE9
:101040002CF02B501C6E2C501D6E1E6A1F6A1EC089
:101050001FF01DC01EF01CC01DF01C6A1C5027266E
:101060001D5028221E5029221F502A2221C01CF068
:1010700022C01DF023C01EF024C01FF0190E46EF41
:1010800008F0D8901F321E321D321C32E82E41EF7C
:1010900008F01C5027261D5028221E5029221F50C0
:1010A0002A2223C024F022C023F021C022F0216A8A
:1010B000255026C01CF01D6A1C26000E1D22820E23
:1010C0001C242B6EFF0E1D202C6E7CEF08F0D89098
:1010D0002736283629362A3624AE71EF08F073EF0A
:1010E00008F074EF08F02780D89021362236233696
:1010F00024362B06D8A02C0629AE81EF08F083EF0A
:1011000008F067EF08F0000E256E24AE8AEF08F0B5
:101110008CEF08F0B0EF08F0FF0E21141C6EFF0EEC
:1011200022141D6EFF0E23141E6E7F0E24141F6EDC
:101130001C501D101E101F10D8B4A1EF08F0A3EF13
:1011400008F0A7EF08F0010E256EB0EF08F027A019
:10115000ACEF08F0AEEF08F0B0EF08F0A3EF08F046
:101160002550D8B4B6EF08F0B8EF08F0DCEF08F07F
:10117000010E2726000E282229222A222AA0C3EFA8
:1011800008F0C5EF08F0DCEF08F027C01CF028C01D
:101190001DF029C01EF02AC01FF01F341F321E325E
:1011A0001D321C321CC027F01DC028F01EC029F0C3
:1011B0001FC02AF02B4A2C2A2CBEE7EF08F02C5037
:1011C00008E12B28D8A0E7EF08F0E9EF08F0F3EFEB
:1011D00008F0000E276E000E286E800E296E7F0E1E
:1011E0002A6E21EF09F02CBE00EF09F02C5006E129
:1011F0002B04D8B0FEEF08F000EF09F00CEF09F077
:10120000000E276E000E286E000E296E000E2A6E4C
:10121000000E206E21EF09F02BC026F0FF0E2716DE
:10122000FF0E28167F0E2916000E2A1626A01BEF89
:1012300009F01DEF09F01EEF09F0298ED890263035
:101240002A6E20502A1227C014F028C015F029C099
:1012500016F02AC017F012001EC036F01FC037F07B
:1012600020C038F021C039F022C03AF023C03BF052
:1012700024C03CF025C03DF03DBE41EF09F044EFF5
:1012800009F0010E45EF09F0000E346E356A345056
:101290003510D8B44EEF09F050EF09F060EF09F0C7
:1012A0003D1E3C1E3B1E3A1E391E381E371E366C34
:1012B000000E3722382239223A223B223C223D229C
:1012C000000165BF66EF09F068EF09F069EF09F00A
:1012D000669365BF76EF09F0655106E16405D8B005
:1012E00074EF09F076EF09F07CEF09F0000E316E33
:1012F000010E306E80EF09F064C030F065C031F04F
:1013000062C032F063C033F034503510D8A48BEF94
:1013100009F08DEF09F094EF09F066A592EF09F05E
:1013200094EF09F097EF09F03206D8A03306000ECB
:101330003F6E1F0E3E6E000E8B6F1BEF0AF03E06D7
:10134000D8A03F066C0E3E24D96E000E3F20DA6E08
:1013500036C001F037C002F038C003F039C004F0E5
:101360003AC005F03BC006F03CC007F03DC008F0B5
:101370000A0E096E000E0A6E000E0B6E000E0C6E49
:10138000000E0D6E000E0E6E000E0F6E000E106E33
:1013900013EC0EF001C026F002C027F003C028F0C5
:1013A00004C029F005C02AF006C02BF007C02CF0BD
:1013B00008C02DF026C013F028C014F0F8EC12F08D
:1013C0001350300FDF6E3006D8A031063206D8A099
:1013D000330636C001F037C002F038C003F039C020
:1013E00004F03AC005F03BC006F03CC007F03DC039
:1013F00008F00A0E096E000E0A6E000E0B6E000E4B
:101400000C6E000E0D6E000E0E6E000E0F6E000EB6
:10141000106E4FEC0DF001C036F002C037F003C083
:1014200038F004C039F005C03AF006C03BF007C000
:101430003CF008C03DF03FBE26EF0AF03F5008E107
:101440003E04D8A026EF0AF028EF0AF059EF0AF080
:1014500036503710381039103A103B103C103D1000
:10146000D8A435EF0AF037EF0AF09FEF09F031BE4C
:1014700044EF0AF0315006E13004D8B042EF0AF0F0
:1014800044EF0AF09FEF09F033BE4FEF0AF03350FC
:1014900008E13204D8A04FEF0AF051EF0AF059EFFB
:1014A0000AF0000166B357EF0AF059EF0AF09FEF18
:1014B00009F034503510D8A460EF0AF062EF0AF05A
:1014C0006AEF0AF0000166A568EF0AF06AEF0AF019
:1014D00088EF0AF03E06D8A03F0634503510D8A455
:1014E00074EF0AF076EF0AF07CEF0AF0000E2F6E30
:1014F0002B0E2E6E80EF0AF0000E2F6E2D0E2E6E2C
:101500006C0E3E24D96E000E3F20DA6E2EC0DFFF37
:101510001CC011F01DC012F06C0E3E24136E000EA4
:101520003F20146E32C015F033C016F09BEC10F063
:1015300011C01CF012C01DF0120042C0D9FF43C000
:10154000DAFFDECFF6FFDDCFF7FF0800F550250A02
:10155000D8A4ADEF0AF0AFEF0AF094EF0BF042C061
:10156000D9FF43C0DAFFDE2A000EDD22000E0001A3
:10157000636F000E626F62C066F063C067F06469FB
:10158000656942C0D9FF43C0DAFFDECFF6FFDDCF89
:10159000F7FF0800F550630AD8A4D1EF0AF0D3EFA3
:1015A0000AF0FAEF0AF042C0D9FF43C0DAFFDE2AA0
:1015B000000EDD2244C0D9FF45C0DAFFDFCF46F080
:1015C000020EDE26DFCF47F0000EDD2246C0D9FF37
:1015D00047C0DAFFDF50506E40C00AF041C00BF048
:1015E00050C00CF0CAEC0FF00AC040F00BC041F044
:1015F000AFEF0BF042C0D9FF43C0DAFFDECFF6FFFA
:10160000DDCFF7FF0800F550640AD8B40AEF0BF0FD
:101610000CEF0BF01EEF0BF042C0D9FF43C0DAFF16
:10162000DECFF6FFDDCFF7FF0800F550690AD8A43A
:101630001CEF0BF01EEF0BF05EEF0BF042C0D9FF7A
:1016400043C0DAFFDE2A000EDD2244C0D9FF45C0C8
:10165000DAFFDFCF46F0020EDE26DFCF47F0000EC6
:10166000DD2246C0D9FF47C0DAFFDECF48F0DDCF2C
:1016700049F0000E49BEFF0E4A6E4B6E4C6E4D6E29
:101680004E6E4F6E40C01CF041C01DF048C01EF0B1
:1016900049C01FF04AC020F04BC021F04CC022F0DE
:1016A0004DC023F04EC024F04FC025F02CEC09F0C3
:1016B0001CC040F01DC041F0AFEF0BF042C0D9FF9D
:1016C00043C0DAFFDECFF6FFDDCFF7FF0800F550AD
:1016D000250AD8A46EEF0BF070EF0BF087EF0BF03C
:1016E00042C0D9FF43C0DAFFDE2A000EDD22000E21
:1016F000026E250E016E40C003F041C004F036ECCE
:1017000010F0000E416E010E406EAFEF0BF042C0C4
:10171000D9FF43C0DAFFDE2A000EDD22000E416E43
:10172000000E406EAFEF0BF042C0D9FF43C0DAFFAE
:10173000DECFF6FFDDCFF7FF0800F550016E026A3D
:1017400040C003F041C004F036EC10F042C0D9FFB5
:1017500043C0DAFFDE2A000EDD2281EF0BF012001B
:101760000E6E0E50D8B4B7EF0BF0B9EF0BF0DBEF05
:101770000BF009BEC0EF0BF0BEEF0BF0DBEF0BF090
:1017800006C00AF007C00BF008C00CF009C00DF04D
:101790000A1E0B1E0C1E0D1E0A2A000E0B220C2206
:1017A0000D220AC010F00BC011F00CC012F00DC0D9
:1017B00013F0E3EF0BF006C010F007C011F008C003
:1017C00012F009C013F00650071008100910D8A431
:1017D000ECEF0BF0EEEF0BF0F8EF0BF0000E066EF7
:1017E000000E076E000E086E000E096E89EF0CF0F9
:1017F000960E0F6E02EF0CF00F2AD89013321232B1
:1018000011321032000E10140A6E000E11140B6EFD
:10181000000E12140C6EFE0E13140D6E0A500B10F7
:101820000C100D10D8A417EF0CF019EF0CF0FCEF12
:101830000BF027EF0CF00F2A010E1026000E1122DC
:1018400012221322D8901332123211321032000EAB
:1018500010140A6E000E11140B6E000E12140C6E92
:10186000FF0E13140D6E0A500B100C100D10D8A49F
:101870003CEF0CF03EEF0CF01BEF0CF046EF0CF0E1
:101880000F06D890103611361236133612BE4BEFB3
:101890000CF04DEF0CF055EF0CF0020E0F6053EF13
:1018A0000CF055EF0CF040EF0CF00FB05AEF0CF0CD
:1018B0005CEF0CF05DEF0CF0129ED8900F320FC071
:1018C0000AF00B6A0C6A0D6A0AC00DF00C6A0B6A0A
:1018D0000A6A0A5010120B5011120C5012120D50BD
:1018E00013120E50D8B477EF0CF079EF0CF081EFB3
:1018F0000CF009BE80EF0CF07EEF0CF081EF0CF0E5
:10190000138E10C006F011C007F012C008F013C00B
:1019100009F01200000E166E000E156E000E0F6E0E
:10192000000E0E6E96EF0CF0084A092A010E146E96
:1019300008C0D9FF09C0DAFF200EDE18D8B4A3EF23
:101940000CF0A5EF0CF0C1EF0CF0F70E0A6EFF0ED5
:101950000B6E08C0D9FF09C0DAFFDF500C6E0D6AAC
:101960000A500C260B500D220D5009E1050E0C5C9F
:10197000D8A0BDEF0CF0BFEF0CF0C1EF0CF0000EE3
:10198000146E14C010F0116A10501110D8A4CBEFCF
:101990000CF0CDEF0CF094EF0CF0D7EF0CF0000E44
:1019A0000F6E010E0E6E084A092A0CEF0DF008C0EA
:1019B000D9FF09C0DAFFDF500A6E0B6A0B50000A2C
:1019C000D8B4E5EF0CF00CEF0DF00A502B0AD8B4A8
:1019D000D3EF0CF0060AD8B4CFEF0CF00CEF0DF0FB
:1019E00015C001F016C002F0000E046E0A0E036E60
:1019F000D8EC13F008C0D9FF09C0DAFFDF500A6E37
:101A00000A50015E000E025A300E0124156E000EBF
:101A10000220166ED3EF0CF0D00E0A6EFF0E0B6E86
:101A200008C0D9FF09C0DAFFDF500C6E0D6A0A50FA
:101A30000C260B500D220D500AE10A0E0C5CD8A0AA
:101A400024EF0DF027EF0DF0010E28EF0DF0000E42
:101A5000126E136A12501310D8A431EF0DF033EF49
:101A60000DF0F0EF0CF00E500F10D8A43AEF0DF07F
:101A70003CEF0DF04AEF0DF015C00AF016C00BF068
:101A80000A1E0B1E0A4A0B2A0AC008F00BC009F0F6
:101A90004EEF0DF015C008F016C009F01200000E50
:101AA000126E10BE58EF0DF056EF0DF06AEF0DF00C
:101AB000101E0F1E0E1E0D1E0C1E0B1E0A1E096C84
:101AC000000E0A220B220C220D220E220F221022BF
:101AD000010E126E08BE71EF0DF06FEF0DF083EF87
:101AE0000DF0081E071E061E051E041E031E021E04
:101AF000016C000E02220322042205220622072284
:101B00000822010E121A20EE13F0070EDE6AE80614
:101B1000FDE209500A100B100C100D100E100F10E2
:101B20001010D8B496EF0DF098EF0DF0EAEF0DF02D
:101B3000010E116EA6EF0DF0D89009360A360B365D
:101B40000C360D360E360F361036112A10AEABEFAE
:101B50000DF0ADEF0DF09CEF0DF0D890133614366C
:101B6000153616361736183619361A360950015CEE
:101B70000A5002580B5003580C5004580D50055889
:101B80000E5006580F50075810500858D8A0CBEFE9
:101B90000DF0CDEF0DF0DEEF0DF00950015E0A50B3
:101BA000025A0B50035A0C50045A0D50055A0E504D
:101BB000065A0F50075A1050085A1380D890103206
:101BC0000F320E320D320C320B320A320932112E24
:101BD000ADEF0DF01250D8B4F0EF0DF0F2EF0DF0C4
:101BE00002EF0EF01A1E191E181E171E161E151EC5
:101BF000141E136C000E142215221622172218220E
:101C000019221A2213C001F014C002F015C003F00B
:101C100016C004F017C005F018C006F019C007F090
:101C20001AC008F01200000E126E08BE1CEF0EF073
:101C30001AEF0EF02EEF0EF0081E071E061E051EF0
:101C4000041E031E021E016C000E02220322042247
:101C50000522062207220822010E126E10BE35EF61
:101C60000EF033EF0EF045EF0EF0101E0F1E0E1E9D
:101C70000D1E0C1E0B1E0A1E096C000E0A220B22E2
:101C80000C220D220E220F22102209500A100B10D6
:101C90000C100D100E100F101010D8B452EF0EF0E3
:101CA00054EF0EF09CEF0EF0010E116E62EF0EF08D
:101CB000D89009360A360B360C360D360E360F36EE
:101CC0001036112A10AE67EF0EF069EF0EF058EFE4
:101CD0000EF00950015C0A5002580B5003580C508A
:101CE00004580D5005580E5006580F500758105004
:101CF0000858D8A07EEF0EF080EF0EF090EF0EF0B7
:101D00000950015E0A50025A0B50035A0C50045AF3
:101D10000D50055A0E50065A0F50075A1050085AC7
:101D2000D89010320F320E320D320C320B320A3292
:101D30000932112E69EF0EF01250D8B4A2EF0EF056
:101D4000A4EF0EF0B4EF0EF0081E071E061E051ECF
:101D5000041E031E021E016C000E02220322042236
:101D6000052206220722082201C001F002C002F06B
:101D700003C003F004C004F005C005F006C006F07F
:101D800007C007F008C008F01200033404340A6EDC
:101D90000A50D8A4CEEF0EF0D0EF0EF0DAEF0EF02E
:101DA000000E016E000E026E000E036E000E046E39
:101DB00047EF0FF001C005F002C006F003C007F0C6
:101DC00004C008F0200EEAEF0EF0D8900832073277
:101DD00006320532E82EE5EF0EF00550096E038E4F
:101DE000FF0E0116FF0E0216FF0E0316000E04165C
:101DF000960E0A5E0ABE01EF0FF0FFEF0EF017EF2E
:101E00000FF00A50800A970FD8B009EF0FF00BEFD0
:101E10000FF00DEF0FF0D0EF0EF0D8900432033238
:101E2000023201320A3E0DEF0FF02FEF0FF01F0EBE
:101E30000A641DEF0FF01FEF0FF027EF0FF0D0EF48
:101E40000EF0D89001360236033604360A060A50E0
:101E5000D8A42DEF0FF02FEF0FF021EF0FF0095066
:101E6000D8B435EF0FF037EF0FF03FEF0FF0041E4F
:101E7000031E021E016C000E02220322042201C076
:101E800001F002C002F003C003F004C004F012002D
:101E9000000E0114096E000E02140A6E800E031467
:101EA0000B6E7F0E04140C6E09500A100B100C10F0
:101EB000D8A45DEF0FF05FEF0FF067EF0FF0000EAB
:101EC000016E000E026E000E036E000E046E000E18
:101ED0000514096E000E06140A6E800E07140B6EB0
:101EE0007F0E08140C6E09500A100B100C10D8A4A9
:101EF0007CEF0FF07EEF0FF086EF0FF0000E056E17
:101F0000000E066E000E076E000E086E04AE8BEF1C
:101F10000FF08DEF0FF096EF0FF0016C021ED8B0AE
:101F2000022A031ED8B0032A800E045608AE9BEF87
:101F30000FF09DEF0FF0A6EF0FF0056C061ED8B066
:101F4000062A071ED8B0072A800E0856000E011A6E
:101F5000000E021A000E031A800E041A000E051A53
:101F6000000E061A000E071A800E081A0550015CB2
:101F7000065002580750035808500458D8B0C3EF11
:101F80000FF0C5EF0FF0C8EF0FF0D890C9EF0FF0CA
:101F9000D8801200000162516311D8A4D2EF0FF073
:101FA000D4EF0FF0DAEF0FF062C010F063C011F061
:101FB000E0EF0FF0FF0E6225106EFF0E6321116E31
:101FC00066A1E5EF0FF0E7EF0FF0F0EF0FF00CC0B8
:101FD00001F0026A0AC003F00BC004F036EC10F006
:101FE00011BEF5EF0FF0F7EF0FF0F9EF0FF0FDEF87
:101FF0000FF0000E116E000E106E000E0F6E000E30
:102000000E6E0FEF10F0000E026E200E016E0AC071
:1020100003F00BC004F036EC10F00E4A0F2A1050FB
:102020000E5C0F50800A0D6E1150800A0D58D8A01A
:102030001CEF10F01EEF10F003EF10F0000166B17E
:1020400024EF10F026EF10F02FEF10F00CC001F08D
:10205000026A0AC003F00BC004F036EC10F0010E67
:102060000E240A6E000E0F200B6E12000350041097
:10207000D8B43DEF10F03FEF10F048EF10F00350F0
:102080000410D8A446EF10F048EF10F04DEF10F018
:10209000015005EC14F09AEF10F020EE04F003501C
:1020A000D9260450DA22DE50DE10D8B45AEF10F0F0
:1020B0005CEF10F077EF10F020EE04F00350D9261B
:1020C0000450DA2210EE02F00350E1260450E2221E
:1020D000DE50E65CE650800A096EDE50800A095840
:1020E000D8B075EF10F077EF10F09AEF10F020EE07
:1020F00002F00350D9260450DA22DECF05F0DDCFFE
:1021000006F003C0D9FF04C0DAFFDECF07F0DDCF51
:1021100008F005500724D96E06500820DA6E01C079
:10212000DFFF20EE02F00350D9260450DA22DE2A27
:10213000000EDD221200000166A1A1EF10F0A3EF56
:1021400010F0ADEF10F013C00AF014C00BF011C086
:102150000CF012C00DF0B4EC12F016BEB2EF10F09D
:10216000B4EF10F0BAEF10F015C01AF016C01BF063
:10217000BEEF10F0000E1B6E000E1A6E000E196EF0
:10218000000E186ED0EF10F0000E026E200E016EE1
:1021900011C003F012C004F036EC10F0184A192AEE
:1021A0001A50185C1950800A176E1B50800A175875
:1021B000D8A0DDEF10F0DFEF10F0C4EF10F0000159
:1021C00066B1E5EF10F0E7EF10F0F1EF10F013C09B
:1021D0000AF014C00BF011C00CF012C00DF0B4ECFA
:1021E00012F013C001F014C002F0A6EC13F01A5064
:1021F0000124116E1B500220126E1200010EF66EA9
:10220000080EF76E20EE01F0100E0900F5CFDEFF8C
:10221000E806FBE2000E136E000E126E000E156E45
:10222000010E146E1438F00B8C6E83A01AEF11F0AF
:102230001CEF11F01EEF11F04FEF11F0124A132AAC
:1022400083A225EF11F027EF11F029EF11F04FEFE6
:1022500011F0124A132A83A430EF11F032EF11F07B
:1022600034EF11F04FEF11F0124A132A83A63BEF1F
:1022700011F03DEF11F03FEF11F04FEF11F0124A66
:10228000132AD89014361536155009E1100E145C37
:10229000D8A04DEF11F04FEF11F012EF11F0000E3A
:1022A000836E010E1224D96E000E1320DA6EDF50F9
:1022B0001200000E0A6E000E096E79EF11F009503F
:1022C0000524076E0A500620086E07C0F6FF08C0F6
:1022D000F7FFF86A070EF76403D00800F55005D041
:1022E000F6CFE1FFF7CFE2FFE7506FEC13F0094ABA
:1022F0000A2A09500524076E0A500620086E07C0F6
:10230000F6FF08C0F7FFF86A070EF76403D008006D
:10231000F55005D0F6CFE1FFF7CFE2FFE750000917
:10232000D8A495EF11F097EF11F05FEF11F01200C4
:10233000000E34EC12F0340E046EF20EE82EFED7CE
:10234000042EFCD7030EEBEC13F00D0E046EFC0E06
:10235000E82EFED7042EFCD7030EEBEC13F01D0E77
:10236000046E910EE82EFED7042EFCD700F0030E6B
:10237000EBEC13F0020EEBEC13F0020EEBEC13F0AF
:10238000080EEBEC13F0000EEBEC13F00C0EEBEC84
:1023900013F0000EEBEC13F0060EEBEC13F0120052
:1023A000056E0504D8A4D7EF11F0D9EF11F0EAEFCC
:1023B00011F004507F0F086E08380F0B066E08509E
:1023C0000F0B076E0650EBEC13F00750EBEC13F01D
:1023D00002EF12F0020E0518D8A4F1EF11F0F3EF9E
:1023E00011F002EF12F00450BF0F086E08380F0B07
:1023F000066E08500F0B076E0650EBEC13F00750FB
:10240000EBEC13F0120053C057F054C058F0000E1C
:102410000001616F000E606F21EF12F051C040F0BB
:1024200052C041F0570E426E000E436E55C044F04C
:1024300056C045F09DEC0AF0405000016027415025
:10244000612357C0F6FF58C0F7FF0800F550000998
:10245000D8A42DEF12F02FEF12F00EEF12F060C0A3
:1024600051F061C052F01200016E01A03AEF12F07B
:102470003CEF12F03FEF12F0818840EF12F08198AC
:1024800001A245EF12F047EF12F04AEF12F0818AF5
:102490004BEF12F0819A01A450EF12F052EF12F0BC
:1024A00055EF12F0818C56EF12F0819C01A65BEF84
:1024B00012F05DEF12F060EF12F0818E61EF12F01A
:1024C000819E12005D0E0001926F000E936F59C045
:1024D00094F05AC095F0000E976F000E966F000EA4
:1024E000996F000E986F940E516E000E526E5BC085
:1024F00053F05CC054F0920E556E000E566E03EC15
:1025000012F0000196515924D96E97515A20DA6E73
:10251000000EDF6E1200010E076E200E0118021071
:10252000D8B495EF12F097EF12F0B0EF12F0F70E6B
:10253000036EFF0E046E01C005F002C006F00350EA
:10254000052604500622065009E1050E055CD8A0B8
:10255000ACEF12F0AEEF12F0B0EF12F0000E076E1B
:1025600007C001F0026A1200000E106E000E0F6E1E
:10257000C5EF12F00EC001F0026A0CC003F00DC0EE
:1025800004F036EC10F00F4A102A0F500A24D96ECE
:1025900010500B20DA6EDF500E6E0E50D8A4D3EF21
:1025A00012F0D5EF12F0BAEF12F01200056E0C0E19
:1025B000C16EDFEF12F0020EC26EF0EF12F00550A6
:1025C000036E046A0450000AD8B4E9EF12F0F0EF89
:1025D00012F00350000AD8B4DBEF12F0F0EF12F063
:1025E000290EC06EC280C282C4CF01F0026A1200FE
:1025F00014BE05EF13F0145006E11304D8B003EF36
:1026000013F005EF13F013EF13F013C015F014C01F
:1026100016F0151E161E154A162A15C013F016C000
:1026200014F017EF13F013C013F014C014F01200DD
:10263000000E936E0F0EC16E02EC14F098EC11F0C8
:10264000FBEC13F0060E046E010ED0EC11F05B0EE5
:10265000056E080E066E59EC11F0EBC0BEF0ECC032
:10266000BFF037EC13F02DEF13F000EF00F044EF64
:1026700013F0C80E00D000D0E82EFCD735EC04F0E3
:102680000001BE07D8A0BF070001BFBF52EF13F083
:10269000BF5106E1BE05D8B050EF13F052EF13F072
:1026A00039EF13F01200D00E036EFF0E046E01C05E
:1026B00005F002C006F0035005260450062206501D
:1026C0000AE10A0E055CD8A068EF13F06BEF13F077
:1026D000010E6CEF13F0000E016E026A1200046E20
:1026E00004500F0B026E0450F00B036E818403380C
:1026F0000F0B34EC12F081861A0EE82EFED700D0B4
:102700008196025034EC12F081861A0EE82EFED724
:1027100000D081961200820EF66E270EF76E000E24
:10272000F86E00EEC0F010EE2EF00900F5CFEEFFCF
:10273000E550E150FAE100EE60F0300EEE6AE80696
:10274000FDE1000EF86E000118EF13F001C003F078
:1027500002C004F0AEEF13F0014A022A01C0D9FF13
:1027600002C0DAFFDF50D8A4B8EF13F0BAEF13F0CD
:10277000ACEF13F00350015C016E04500258026E7E
:10278000120074656D706572617475726120726596
:1027900067756C61720D0074656D7065726174753A
:1027A000726120616C74610D003230323064004E11
:1027B00001500302F3CF05F0F4CF06F001500402FC
:1027C000F350062602500302F350062605C001F01E
:1027D00006C002F01200036E8194035034EC12F034
:1027E00081860B0E026E620EE82EFED7022EFCD7FB
:1027F00000D081961200000EEBEC13F0010EEBEC12
:0C28000013F012000F0E956E1200120073
:020000040020DA
:08000000FFFFFFFFFFFFFFFF00
:020000040030CA
:0E00000000051F1FFF8385FF0FC00FE00F409C
:00000001FF
